{
  "_format": "hh-sol-artifact-1",
  "contractName": "PizzaBallot",
  "sourceName": "contracts/PizzaBallot.sol",
  "abi": [
    {
      "inputs": [
        {
          "internalType": "bytes32[]",
          "name": "proposalNames",
          "type": "bytes32[]"
        },
        {
          "internalType": "address",
          "name": "_PizzaCoin",
          "type": "address"
        },
        {
          "internalType": "uint8",
          "name": "_endVoteDays",
          "type": "uint8"
        }
      ],
      "stateMutability": "nonpayable",
      "type": "constructor"
    },
    {
      "anonymous": false,
      "inputs": [
        {
          "indexed": true,
          "internalType": "bytes32",
          "name": "role",
          "type": "bytes32"
        },
        {
          "indexed": true,
          "internalType": "bytes32",
          "name": "previousAdminRole",
          "type": "bytes32"
        },
        {
          "indexed": true,
          "internalType": "bytes32",
          "name": "newAdminRole",
          "type": "bytes32"
        }
      ],
      "name": "RoleAdminChanged",
      "type": "event"
    },
    {
      "anonymous": false,
      "inputs": [
        {
          "indexed": true,
          "internalType": "bytes32",
          "name": "role",
          "type": "bytes32"
        },
        {
          "indexed": true,
          "internalType": "address",
          "name": "account",
          "type": "address"
        },
        {
          "indexed": true,
          "internalType": "address",
          "name": "sender",
          "type": "address"
        }
      ],
      "name": "RoleGranted",
      "type": "event"
    },
    {
      "anonymous": false,
      "inputs": [
        {
          "indexed": true,
          "internalType": "bytes32",
          "name": "role",
          "type": "bytes32"
        },
        {
          "indexed": true,
          "internalType": "address",
          "name": "account",
          "type": "address"
        },
        {
          "indexed": true,
          "internalType": "address",
          "name": "sender",
          "type": "address"
        }
      ],
      "name": "RoleRevoked",
      "type": "event"
    },
    {
      "inputs": [],
      "name": "CHAIRPERSON_ROLE",
      "outputs": [
        {
          "internalType": "bytes32",
          "name": "",
          "type": "bytes32"
        }
      ],
      "stateMutability": "view",
      "type": "function"
    },
    {
      "inputs": [],
      "name": "DEFAULT_ADMIN_ROLE",
      "outputs": [
        {
          "internalType": "bytes32",
          "name": "",
          "type": "bytes32"
        }
      ],
      "stateMutability": "view",
      "type": "function"
    },
    {
      "inputs": [
        {
          "internalType": "address",
          "name": "account",
          "type": "address"
        }
      ],
      "name": "balanceOfTokenBallot",
      "outputs": [
        {
          "internalType": "uint256",
          "name": "",
          "type": "uint256"
        }
      ],
      "stateMutability": "view",
      "type": "function"
    },
    {
      "inputs": [
        {
          "internalType": "address",
          "name": "to",
          "type": "address"
        }
      ],
      "name": "delegate",
      "outputs": [],
      "stateMutability": "nonpayable",
      "type": "function"
    },
    {
      "inputs": [
        {
          "internalType": "bytes32",
          "name": "role",
          "type": "bytes32"
        }
      ],
      "name": "getRoleAdmin",
      "outputs": [
        {
          "internalType": "bytes32",
          "name": "",
          "type": "bytes32"
        }
      ],
      "stateMutability": "view",
      "type": "function"
    },
    {
      "inputs": [
        {
          "internalType": "address",
          "name": "account",
          "type": "address"
        }
      ],
      "name": "grantChairPersonRole",
      "outputs": [],
      "stateMutability": "nonpayable",
      "type": "function"
    },
    {
      "inputs": [
        {
          "internalType": "bytes32",
          "name": "role",
          "type": "bytes32"
        },
        {
          "internalType": "address",
          "name": "account",
          "type": "address"
        }
      ],
      "name": "grantRole",
      "outputs": [],
      "stateMutability": "nonpayable",
      "type": "function"
    },
    {
      "inputs": [
        {
          "internalType": "bytes32",
          "name": "role",
          "type": "bytes32"
        },
        {
          "internalType": "address",
          "name": "account",
          "type": "address"
        }
      ],
      "name": "hasRole",
      "outputs": [
        {
          "internalType": "bool",
          "name": "",
          "type": "bool"
        }
      ],
      "stateMutability": "view",
      "type": "function"
    },
    {
      "inputs": [],
      "name": "owner",
      "outputs": [
        {
          "internalType": "address",
          "name": "",
          "type": "address"
        }
      ],
      "stateMutability": "view",
      "type": "function"
    },
    {
      "inputs": [
        {
          "internalType": "uint256",
          "name": "",
          "type": "uint256"
        }
      ],
      "name": "proposals",
      "outputs": [
        {
          "internalType": "bytes32",
          "name": "name",
          "type": "bytes32"
        },
        {
          "internalType": "uint256",
          "name": "voteCount",
          "type": "uint256"
        }
      ],
      "stateMutability": "view",
      "type": "function"
    },
    {
      "inputs": [
        {
          "internalType": "bytes32",
          "name": "role",
          "type": "bytes32"
        },
        {
          "internalType": "address",
          "name": "account",
          "type": "address"
        }
      ],
      "name": "renounceRole",
      "outputs": [],
      "stateMutability": "nonpayable",
      "type": "function"
    },
    {
      "inputs": [
        {
          "internalType": "bytes32",
          "name": "role",
          "type": "bytes32"
        },
        {
          "internalType": "address",
          "name": "account",
          "type": "address"
        }
      ],
      "name": "revokeRole",
      "outputs": [],
      "stateMutability": "nonpayable",
      "type": "function"
    },
    {
      "inputs": [
        {
          "internalType": "bytes4",
          "name": "interfaceId",
          "type": "bytes4"
        }
      ],
      "name": "supportsInterface",
      "outputs": [
        {
          "internalType": "bool",
          "name": "",
          "type": "bool"
        }
      ],
      "stateMutability": "view",
      "type": "function"
    },
    {
      "inputs": [],
      "name": "totalSupply",
      "outputs": [
        {
          "internalType": "uint256",
          "name": "",
          "type": "uint256"
        }
      ],
      "stateMutability": "view",
      "type": "function"
    },
    {
      "inputs": [
        {
          "internalType": "uint256",
          "name": "proposal",
          "type": "uint256"
        }
      ],
      "name": "vote",
      "outputs": [],
      "stateMutability": "nonpayable",
      "type": "function"
    },
    {
      "inputs": [
        {
          "internalType": "address",
          "name": "",
          "type": "address"
        }
      ],
      "name": "voters",
      "outputs": [
        {
          "internalType": "bool",
          "name": "voted",
          "type": "bool"
        },
        {
          "internalType": "address",
          "name": "delegate",
          "type": "address"
        },
        {
          "internalType": "uint256",
          "name": "vote",
          "type": "uint256"
        }
      ],
      "stateMutability": "view",
      "type": "function"
    },
    {
      "inputs": [],
      "name": "winnerName",
      "outputs": [
        {
          "internalType": "bytes32",
          "name": "winnerName_",
          "type": "bytes32"
        }
      ],
      "stateMutability": "view",
      "type": "function"
    },
    {
      "inputs": [],
      "name": "winningProposal",
      "outputs": [
        {
          "internalType": "uint256",
          "name": "winningProposal_",
          "type": "uint256"
        }
      ],
      "stateMutability": "view",
      "type": "function"
    }
  ],
  "bytecode": "0x60806040523480156200001157600080fd5b506040516200291f3803806200291f833981810160405281019062000037919062000463565b33600560006101000a81548173ffffffffffffffffffffffffffffffffffffffff021916908373ffffffffffffffffffffffffffffffffffffffff16021790555081600460006101000a81548173ffffffffffffffffffffffffffffffffffffffff021916908373ffffffffffffffffffffffffffffffffffffffff160217905550620000ce6000801b336200020360201b60201c565b620001007fd83c1a50dc0a09945cd355882e9b92d840723815900d90b54a78888e14a1acee336200020360201b60201c565b426001819055508060ff16620151806200011b919062000587565b62ffffff166003819055506003546001546200013891906200052a565b60028190555060005b8351811015620001f9576007604051806040016040528086848151811062000192577f4e487b7100000000000000000000000000000000000000000000000000000000600052603260045260246000fd5b6020026020010151815260200160008152509080600181540180825580915050600190039060005260206000209060020201600090919091909150600082015181600001556020820151816001015550508080620001f09062000665565b91505062000141565b5050505062000770565b6200021582826200021960201b60201c565b5050565b6200022b82826200030a60201b60201c565b6200030657600160008084815260200190815260200160002060000160008373ffffffffffffffffffffffffffffffffffffffff1673ffffffffffffffffffffffffffffffffffffffff16815260200190815260200160002060006101000a81548160ff021916908315150217905550620002ab6200037460201b60201c565b73ffffffffffffffffffffffffffffffffffffffff168173ffffffffffffffffffffffffffffffffffffffff16837f2f8788117e7eff1d82e926ec794901d17c78024a50270940304540a733656f0d60405160405180910390a45b5050565b600080600084815260200190815260200160002060000160008373ffffffffffffffffffffffffffffffffffffffff1673ffffffffffffffffffffffffffffffffffffffff16815260200190815260200160002060009054906101000a900460ff16905092915050565b600033905090565b6000620003936200038d84620004fb565b620004d2565b90508083825260208201905082856020860282011115620003b357600080fd5b60005b85811015620003e75781620003cc888262000435565b845260208401935060208301925050600181019050620003b6565b5050509392505050565b600081519050620004028162000722565b92915050565b600082601f8301126200041a57600080fd5b81516200042c8482602086016200037c565b91505092915050565b60008151905062000446816200073c565b92915050565b6000815190506200045d8162000756565b92915050565b6000806000606084860312156200047957600080fd5b600084015167ffffffffffffffff8111156200049457600080fd5b620004a28682870162000408565b9350506020620004b586828701620003f1565b9250506040620004c8868287016200044c565b9150509250925092565b6000620004de620004f1565b9050620004ec82826200062f565b919050565b6000604051905090565b600067ffffffffffffffff821115620005195762000518620006e2565b5b602082029050602081019050919050565b6000620005378262000618565b9150620005448362000618565b9250827fffffffffffffffffffffffffffffffffffffffffffffffffffffffffffffffff038211156200057c576200057b620006b3565b5b828201905092915050565b6000620005948262000609565b9150620005a18362000609565b92508162ffffff0483118215151615620005c057620005bf620006b3565b5b828202905092915050565b6000620005d882620005e9565b9050919050565b6000819050919050565b600073ffffffffffffffffffffffffffffffffffffffff82169050919050565b600062ffffff82169050919050565b6000819050919050565b600060ff82169050919050565b6200063a8262000711565b810181811067ffffffffffffffff821117156200065c576200065b620006e2565b5b80604052505050565b6000620006728262000618565b91507fffffffffffffffffffffffffffffffffffffffffffffffffffffffffffffffff821415620006a857620006a7620006b3565b5b600182019050919050565b7f4e487b7100000000000000000000000000000000000000000000000000000000600052601160045260246000fd5b7f4e487b7100000000000000000000000000000000000000000000000000000000600052604160045260246000fd5b6000601f19601f8301169050919050565b6200072d81620005cb565b81146200073957600080fd5b50565b6200074781620005df565b81146200075357600080fd5b50565b620007618162000622565b81146200076d57600080fd5b50565b61219f80620007806000396000f3fe608060405234801561001057600080fd5b50600436106101165760003560e01c8063609ff1bd116100a2578063a217fddf11610071578063a217fddf146102f2578063a22e587114610310578063a3ec138d1461032e578063d547741f14610360578063e2ba53f01461037c57610116565b8063609ff1bd1461026a5780638da5cb5b146102885780638ddcf166146102a657806391d14854146102c257610116565b8063248a9ca3116100e9578063248a9ca3146101b6578063284e8365146101e65780632f2ff15d1461021657806336568abe146102325780635c19a95c1461024e57610116565b80630121b93f1461011b578063013cf08b1461013757806301ffc9a71461016857806318160ddd14610198575b600080fd5b610135600480360381019061013091906117d1565b61039a565b005b610151600480360381019061014c91906117d1565b610516565b60405161015f929190611b49565b60405180910390f35b610182600480360381019061017d91906117a8565b61054a565b60405161018f9190611adc565b60405180910390f35b6101a06105c4565b6040516101ad9190611c94565b60405180910390f35b6101d060048036038101906101cb9190611743565b61066b565b6040516101dd9190611b2e565b60405180910390f35b61020060048036038101906101fb91906116f1565b61068a565b60405161020d9190611c94565b60405180910390f35b610230600480360381019061022b919061176c565b61073e565b005b61024c6004803603810190610247919061176c565b610767565b005b610268600480360381019061026391906116f1565b6107ea565b005b610272610bb3565b60405161027f9190611c94565b60405180910390f35b610290610cc8565b60405161029d9190611a61565b60405180910390f35b6102c060048036038101906102bb91906116f1565b610cee565b005b6102dc60048036038101906102d7919061176c565b610d4e565b6040516102e99190611adc565b60405180910390f35b6102fa610db8565b6040516103079190611b2e565b60405180910390f35b610318610dbf565b6040516103259190611b2e565b60405180910390f35b610348600480360381019061034391906116f1565b610de3565b60405161035793929190611af7565b60405180910390f35b61037a6004803603810190610375919061176c565b610e3a565b005b610384610e63565b6040516103919190611b2e565b60405180910390f35b6001544210156103df576040517f08c379a00000000000000000000000000000000000000000000000000000000081526004016103d690611c34565b60405180910390fd5b6000600660003373ffffffffffffffffffffffffffffffffffffffff1673ffffffffffffffffffffffffffffffffffffffff1681526020019081526020016000209050600061042d3361068a565b141561046e576040517f08c379a000000000000000000000000000000000000000000000000000000000815260040161046590611bb4565b60405180910390fd5b610481333061047c3361068a565b610f02565b5060018160000160006101000a81548160ff0219169083151502179055508181600101819055506104b13361068a565b600783815481106104eb577f4e487b7100000000000000000000000000000000000000000000000000000000600052603260045260246000fd5b9060005260206000209060020201600101600082825461050b9190611cd6565b925050819055505050565b6007818154811061052657600080fd5b90600052602060002090600202016000915090508060000154908060010154905082565b60007f7965db0b000000000000000000000000000000000000000000000000000000007bffffffffffffffffffffffffffffffffffffffffffffffffffffffff1916827bffffffffffffffffffffffffffffffffffffffffffffffffffffffff191614806105bd57506105bc826110a9565b5b9050919050565b6000600460009054906101000a900473ffffffffffffffffffffffffffffffffffffffff1673ffffffffffffffffffffffffffffffffffffffff166318160ddd6040518163ffffffff1660e01b815260040160206040518083038186803b15801561062e57600080fd5b505afa158015610642573d6000803e3d6000fd5b505050506040513d601f19601f8201168201806040525081019061066691906117fa565b905090565b6000806000838152602001908152602001600020600101549050919050565b6000600460009054906101000a900473ffffffffffffffffffffffffffffffffffffffff1673ffffffffffffffffffffffffffffffffffffffff166370a08231836040518263ffffffff1660e01b81526004016106e79190611a61565b60206040518083038186803b1580156106ff57600080fd5b505afa158015610713573d6000803e3d6000fd5b505050506040513d601f19601f8201168201806040525081019061073791906117fa565b9050919050565b6107478261066b565b61075881610753611113565b61111b565b61076283836111b8565b505050565b61076f611113565b73ffffffffffffffffffffffffffffffffffffffff168173ffffffffffffffffffffffffffffffffffffffff16146107dc576040517f08c379a00000000000000000000000000000000000000000000000000000000081526004016107d390611c74565b60405180910390fd5b6107e68282611298565b5050565b6000600660003373ffffffffffffffffffffffffffffffffffffffff1673ffffffffffffffffffffffffffffffffffffffff16815260200190815260200160002090503373ffffffffffffffffffffffffffffffffffffffff168273ffffffffffffffffffffffffffffffffffffffff16141561089c576040517f08c379a000000000000000000000000000000000000000000000000000000000815260040161089390611c54565b60405180910390fd5b60006108a73361068a565b14156108e8576040517f08c379a00000000000000000000000000000000000000000000000000000000081526004016108df90611c14565b60405180910390fd5b5b600073ffffffffffffffffffffffffffffffffffffffff16600660008473ffffffffffffffffffffffffffffffffffffffff1673ffffffffffffffffffffffffffffffffffffffff16815260200190815260200160002060000160019054906101000a900473ffffffffffffffffffffffffffffffffffffffff1673ffffffffffffffffffffffffffffffffffffffff1614610a5857600660008373ffffffffffffffffffffffffffffffffffffffff1673ffffffffffffffffffffffffffffffffffffffff16815260200190815260200160002060000160019054906101000a900473ffffffffffffffffffffffffffffffffffffffff1691503373ffffffffffffffffffffffffffffffffffffffff168273ffffffffffffffffffffffffffffffffffffffff161415610a53576040517f08c379a0000000000000000000000000000000000000000000000000000000008152600401610a4a90611bd4565b60405180910390fd5b6108e9565b60018160000160006101000a81548160ff021916908315150217905550818160000160016101000a81548173ffffffffffffffffffffffffffffffffffffffff021916908373ffffffffffffffffffffffffffffffffffffffff1602179055506000600660008473ffffffffffffffffffffffffffffffffffffffff1673ffffffffffffffffffffffffffffffffffffffff16815260200190815260200160002090508060000160009054906101000a900460ff1615610b9957610b1b3361068a565b6007826001015481548110610b59577f4e487b7100000000000000000000000000000000000000000000000000000000600052603260045260246000fd5b90600052602060002090600202016001016000828254610b799190611cd6565b92505081905550610b933330610b8e3361068a565b610f02565b50610bae565b610bac3384610ba73361068a565b610f02565b505b505050565b6000600254421115610bfa576040517f08c379a0000000000000000000000000000000000000000000000000000000008152600401610bf190611bf4565b60405180910390fd5b6000805b600780549050811015610cc3578160078281548110610c46577f4e487b7100000000000000000000000000000000000000000000000000000000600052603260045260246000fd5b9060005260206000209060020201600101541115610cb05760078181548110610c98577f4e487b7100000000000000000000000000000000000000000000000000000000600052603260045260246000fd5b90600052602060002090600202016001015491508092505b8080610cbb90611e61565b915050610bfe565b505090565b600560009054906101000a900473ffffffffffffffffffffffffffffffffffffffff1681565b7fd83c1a50dc0a09945cd355882e9b92d840723815900d90b54a78888e14a1acee610d2081610d1b611113565b61111b565b610d4a7fd83c1a50dc0a09945cd355882e9b92d840723815900d90b54a78888e14a1acee8361073e565b5050565b600080600084815260200190815260200160002060000160008373ffffffffffffffffffffffffffffffffffffffff1673ffffffffffffffffffffffffffffffffffffffff16815260200190815260200160002060009054906101000a900460ff16905092915050565b6000801b81565b7fd83c1a50dc0a09945cd355882e9b92d840723815900d90b54a78888e14a1acee81565b60066020528060005260406000206000915090508060000160009054906101000a900460ff16908060000160019054906101000a900473ffffffffffffffffffffffffffffffffffffffff16908060010154905083565b610e438261066b565b610e5481610e4f611113565b61111b565b610e5e8383611298565b505050565b6000600254421115610eaa576040517f08c379a0000000000000000000000000000000000000000000000000000000008152600401610ea190611bf4565b60405180910390fd5b6007610eb4610bb3565b81548110610eeb577f4e487b7100000000000000000000000000000000000000000000000000000000600052603260045260246000fd5b906000526020600020906002020160000154905090565b60003073ffffffffffffffffffffffffffffffffffffffff168373ffffffffffffffffffffffffffffffffffffffff161415610fee57600460009054906101000a900473ffffffffffffffffffffffffffffffffffffffff1673ffffffffffffffffffffffffffffffffffffffff16639dc29fac85846040518363ffffffff1660e01b8152600401610f95929190611ab3565b602060405180830381600087803b158015610faf57600080fd5b505af1158015610fc3573d6000803e3d6000fd5b505050506040513d601f19601f82011682018060405250810190610fe7919061171a565b90506110a2565b600460009054906101000a900473ffffffffffffffffffffffffffffffffffffffff1673ffffffffffffffffffffffffffffffffffffffff166323b872dd8585856040518463ffffffff1660e01b815260040161104d93929190611a7c565b602060405180830381600087803b15801561106757600080fd5b505af115801561107b573d6000803e3d6000fd5b505050506040513d601f19601f8201168201806040525081019061109f919061171a565b90505b9392505050565b60007f01ffc9a7000000000000000000000000000000000000000000000000000000007bffffffffffffffffffffffffffffffffffffffffffffffffffffffff1916827bffffffffffffffffffffffffffffffffffffffffffffffffffffffff1916149050919050565b600033905090565b6111258282610d4e565b6111b45761114a8173ffffffffffffffffffffffffffffffffffffffff166014611379565b6111588360001c6020611379565b604051602001611169929190611a27565b6040516020818303038152906040526040517f08c379a00000000000000000000000000000000000000000000000000000000081526004016111ab9190611b72565b60405180910390fd5b5050565b6111c28282610d4e565b61129457600160008084815260200190815260200160002060000160008373ffffffffffffffffffffffffffffffffffffffff1673ffffffffffffffffffffffffffffffffffffffff16815260200190815260200160002060006101000a81548160ff021916908315150217905550611239611113565b73ffffffffffffffffffffffffffffffffffffffff168173ffffffffffffffffffffffffffffffffffffffff16837f2f8788117e7eff1d82e926ec794901d17c78024a50270940304540a733656f0d60405160405180910390a45b5050565b6112a28282610d4e565b1561137557600080600084815260200190815260200160002060000160008373ffffffffffffffffffffffffffffffffffffffff1673ffffffffffffffffffffffffffffffffffffffff16815260200190815260200160002060006101000a81548160ff02191690831515021790555061131a611113565b73ffffffffffffffffffffffffffffffffffffffff168173ffffffffffffffffffffffffffffffffffffffff16837ff6391f5c32d9c69d2a47ea670b442974b53935d1edc7fd64eb21e047a839171b60405160405180910390a45b5050565b60606000600283600261138c9190611d2c565b6113969190611cd6565b67ffffffffffffffff8111156113d5577f4e487b7100000000000000000000000000000000000000000000000000000000600052604160045260246000fd5b6040519080825280601f01601f1916602001820160405280156114075781602001600182028036833780820191505090505b5090507f300000000000000000000000000000000000000000000000000000000000000081600081518110611465577f4e487b7100000000000000000000000000000000000000000000000000000000600052603260045260246000fd5b60200101907effffffffffffffffffffffffffffffffffffffffffffffffffffffffffffff1916908160001a9053507f7800000000000000000000000000000000000000000000000000000000000000816001815181106114ef577f4e487b7100000000000000000000000000000000000000000000000000000000600052603260045260246000fd5b60200101907effffffffffffffffffffffffffffffffffffffffffffffffffffffffffffff1916908160001a9053506000600184600261152f9190611d2c565b6115399190611cd6565b90505b6001811115611625577f3031323334353637383961626364656600000000000000000000000000000000600f8616601081106115a1577f4e487b7100000000000000000000000000000000000000000000000000000000600052603260045260246000fd5b1a60f81b8282815181106115de577f4e487b7100000000000000000000000000000000000000000000000000000000600052603260045260246000fd5b60200101907effffffffffffffffffffffffffffffffffffffffffffffffffffffffffffff1916908160001a905350600485901c94508061161e90611e37565b905061153c565b5060008414611669576040517f08c379a000000000000000000000000000000000000000000000000000000000815260040161166090611b94565b60405180910390fd5b8091505092915050565b600081359050611682816120f6565b92915050565b6000815190506116978161210d565b92915050565b6000813590506116ac81612124565b92915050565b6000813590506116c18161213b565b92915050565b6000813590506116d681612152565b92915050565b6000815190506116eb81612152565b92915050565b60006020828403121561170357600080fd5b600061171184828501611673565b91505092915050565b60006020828403121561172c57600080fd5b600061173a84828501611688565b91505092915050565b60006020828403121561175557600080fd5b60006117638482850161169d565b91505092915050565b6000806040838503121561177f57600080fd5b600061178d8582860161169d565b925050602061179e85828601611673565b9150509250929050565b6000602082840312156117ba57600080fd5b60006117c8848285016116b2565b91505092915050565b6000602082840312156117e357600080fd5b60006117f1848285016116c7565b91505092915050565b60006020828403121561180c57600080fd5b600061181a848285016116dc565b91505092915050565b61182c81611d86565b82525050565b61183b81611d98565b82525050565b61184a81611da4565b82525050565b600061185b82611caf565b6118658185611cba565b9350611875818560208601611e04565b61187e81611ed9565b840191505092915050565b600061189482611caf565b61189e8185611ccb565b93506118ae818560208601611e04565b80840191505092915050565b60006118c7602083611cba565b91506118d282611eea565b602082019050919050565b60006118ea601483611cba565b91506118f582611f13565b602082019050919050565b600061190d601983611cba565b915061191882611f3c565b602082019050919050565b6000611930602d83611cba565b915061193b82611f65565b604082019050919050565b6000611953601883611cba565b915061195e82611fb4565b602082019050919050565b6000611976601783611ccb565b915061198182611fdd565b601782019050919050565b6000611999602183611cba565b91506119a482612006565b604082019050919050565b60006119bc601e83611cba565b91506119c782612055565b602082019050919050565b60006119df601183611ccb565b91506119ea8261207e565b601182019050919050565b6000611a02602f83611cba565b9150611a0d826120a7565b604082019050919050565b611a2181611dfa565b82525050565b6000611a3282611969565b9150611a3e8285611889565b9150611a49826119d2565b9150611a558284611889565b91508190509392505050565b6000602082019050611a766000830184611823565b92915050565b6000606082019050611a916000830186611823565b611a9e6020830185611823565b611aab6040830184611a18565b949350505050565b6000604082019050611ac86000830185611823565b611ad56020830184611a18565b9392505050565b6000602082019050611af16000830184611832565b92915050565b6000606082019050611b0c6000830186611832565b611b196020830185611823565b611b266040830184611a18565b949350505050565b6000602082019050611b436000830184611841565b92915050565b6000604082019050611b5e6000830185611841565b611b6b6020830184611a18565b9392505050565b60006020820190508181036000830152611b8c8184611850565b905092915050565b60006020820190508181036000830152611bad816118ba565b9050919050565b60006020820190508181036000830152611bcd816118dd565b9050919050565b60006020820190508181036000830152611bed81611900565b9050919050565b60006020820190508181036000830152611c0d81611923565b9050919050565b60006020820190508181036000830152611c2d81611946565b9050919050565b60006020820190508181036000830152611c4d8161198c565b9050919050565b60006020820190508181036000830152611c6d816119af565b9050919050565b60006020820190508181036000830152611c8d816119f5565b9050919050565b6000602082019050611ca96000830184611a18565b92915050565b600081519050919050565b600082825260208201905092915050565b600081905092915050565b6000611ce182611dfa565b9150611cec83611dfa565b9250827fffffffffffffffffffffffffffffffffffffffffffffffffffffffffffffffff03821115611d2157611d20611eaa565b5b828201905092915050565b6000611d3782611dfa565b9150611d4283611dfa565b9250817fffffffffffffffffffffffffffffffffffffffffffffffffffffffffffffffff0483118215151615611d7b57611d7a611eaa565b5b828202905092915050565b6000611d9182611dda565b9050919050565b60008115159050919050565b6000819050919050565b60007fffffffff0000000000000000000000000000000000000000000000000000000082169050919050565b600073ffffffffffffffffffffffffffffffffffffffff82169050919050565b6000819050919050565b60005b83811015611e22578082015181840152602081019050611e07565b83811115611e31576000848401525b50505050565b6000611e4282611dfa565b91506000821415611e5657611e55611eaa565b5b600182039050919050565b6000611e6c82611dfa565b91507fffffffffffffffffffffffffffffffffffffffffffffffffffffffffffffffff821415611e9f57611e9e611eaa565b5b600182019050919050565b7f4e487b7100000000000000000000000000000000000000000000000000000000600052601160045260246000fd5b6000601f19601f8301169050919050565b7f537472696e67733a20686578206c656e67746820696e73756666696369656e74600082015250565b7f486173206e6f20726967687420746f20766f7465000000000000000000000000600082015250565b7f466f756e64206c6f6f7020696e2064656c65676174696f6e2e00000000000000600082015250565b7f54686520766f7465206469646e27742066696e6973682079657420746f20726560008201527f7475726e20612077696e6e657200000000000000000000000000000000000000602082015250565b7f486173206e6f20746f6b656e20746f2064656c65676174650000000000000000600082015250565b7f416363657373436f6e74726f6c3a206163636f756e7420000000000000000000600082015250565b7f54686520766f7465206469646e27742073746172742079657420746f20766f7460008201527f6500000000000000000000000000000000000000000000000000000000000000602082015250565b7f53656c662d64656c65676174696f6e20697320646973616c6c6f7765642e0000600082015250565b7f206973206d697373696e6720726f6c6520000000000000000000000000000000600082015250565b7f416363657373436f6e74726f6c3a2063616e206f6e6c792072656e6f756e636560008201527f20726f6c657320666f722073656c660000000000000000000000000000000000602082015250565b6120ff81611d86565b811461210a57600080fd5b50565b61211681611d98565b811461212157600080fd5b50565b61212d81611da4565b811461213857600080fd5b50565b61214481611dae565b811461214f57600080fd5b50565b61215b81611dfa565b811461216657600080fd5b5056fea2646970667358221220b57f035eac85df94484bc742bf179430d9134cab137ab87155e95050f9c13ebb64736f6c63430008030033",
  "linkReferences": {},
  "deployedLinkReferences": {}
}