{
  "_format": "hh-sol-artifact-1",
  "contractName": "PizzaCoin",
  "sourceName": "contracts/PizzaCoin.sol",
  "abi": [
    {
      "inputs": [],
      "stateMutability": "nonpayable",
      "type": "constructor"
    },
    {
      "anonymous": false,
      "inputs": [
        {
          "indexed": true,
          "internalType": "address",
          "name": "owner",
          "type": "address"
        },
        {
          "indexed": true,
          "internalType": "address",
          "name": "spender",
          "type": "address"
        },
        {
          "indexed": false,
          "internalType": "uint256",
          "name": "value",
          "type": "uint256"
        }
      ],
      "name": "Approval",
      "type": "event"
    },
    {
      "anonymous": false,
      "inputs": [
        {
          "indexed": true,
          "internalType": "bytes32",
          "name": "role",
          "type": "bytes32"
        },
        {
          "indexed": true,
          "internalType": "bytes32",
          "name": "previousAdminRole",
          "type": "bytes32"
        },
        {
          "indexed": true,
          "internalType": "bytes32",
          "name": "newAdminRole",
          "type": "bytes32"
        }
      ],
      "name": "RoleAdminChanged",
      "type": "event"
    },
    {
      "anonymous": false,
      "inputs": [
        {
          "indexed": true,
          "internalType": "bytes32",
          "name": "role",
          "type": "bytes32"
        },
        {
          "indexed": true,
          "internalType": "address",
          "name": "account",
          "type": "address"
        },
        {
          "indexed": true,
          "internalType": "address",
          "name": "sender",
          "type": "address"
        }
      ],
      "name": "RoleGranted",
      "type": "event"
    },
    {
      "anonymous": false,
      "inputs": [
        {
          "indexed": true,
          "internalType": "bytes32",
          "name": "role",
          "type": "bytes32"
        },
        {
          "indexed": true,
          "internalType": "address",
          "name": "account",
          "type": "address"
        },
        {
          "indexed": true,
          "internalType": "address",
          "name": "sender",
          "type": "address"
        }
      ],
      "name": "RoleRevoked",
      "type": "event"
    },
    {
      "anonymous": false,
      "inputs": [
        {
          "indexed": true,
          "internalType": "address",
          "name": "from",
          "type": "address"
        },
        {
          "indexed": true,
          "internalType": "address",
          "name": "to",
          "type": "address"
        },
        {
          "indexed": false,
          "internalType": "uint256",
          "name": "value",
          "type": "uint256"
        }
      ],
      "name": "Transfer",
      "type": "event"
    },
    {
      "inputs": [],
      "name": "DEFAULT_ADMIN_ROLE",
      "outputs": [
        {
          "internalType": "bytes32",
          "name": "",
          "type": "bytes32"
        }
      ],
      "stateMutability": "view",
      "type": "function"
    },
    {
      "inputs": [],
      "name": "MINTER_ROLE",
      "outputs": [
        {
          "internalType": "bytes32",
          "name": "",
          "type": "bytes32"
        }
      ],
      "stateMutability": "view",
      "type": "function"
    },
    {
      "inputs": [
        {
          "internalType": "address",
          "name": "owner",
          "type": "address"
        },
        {
          "internalType": "address",
          "name": "spender",
          "type": "address"
        }
      ],
      "name": "allowance",
      "outputs": [
        {
          "internalType": "uint256",
          "name": "",
          "type": "uint256"
        }
      ],
      "stateMutability": "view",
      "type": "function"
    },
    {
      "inputs": [
        {
          "internalType": "address",
          "name": "spender",
          "type": "address"
        },
        {
          "internalType": "uint256",
          "name": "amount",
          "type": "uint256"
        }
      ],
      "name": "approve",
      "outputs": [
        {
          "internalType": "bool",
          "name": "",
          "type": "bool"
        }
      ],
      "stateMutability": "nonpayable",
      "type": "function"
    },
    {
      "inputs": [
        {
          "internalType": "address",
          "name": "account",
          "type": "address"
        }
      ],
      "name": "balanceOf",
      "outputs": [
        {
          "internalType": "uint256",
          "name": "",
          "type": "uint256"
        }
      ],
      "stateMutability": "view",
      "type": "function"
    },
    {
      "inputs": [
        {
          "internalType": "uint256",
          "name": "amount",
          "type": "uint256"
        }
      ],
      "name": "burn",
      "outputs": [],
      "stateMutability": "nonpayable",
      "type": "function"
    },
    {
      "inputs": [
        {
          "internalType": "address",
          "name": "account",
          "type": "address"
        },
        {
          "internalType": "uint256",
          "name": "amount",
          "type": "uint256"
        }
      ],
      "name": "burn",
      "outputs": [
        {
          "internalType": "bool",
          "name": "",
          "type": "bool"
        }
      ],
      "stateMutability": "nonpayable",
      "type": "function"
    },
    {
      "inputs": [
        {
          "internalType": "address",
          "name": "account",
          "type": "address"
        },
        {
          "internalType": "uint256",
          "name": "amount",
          "type": "uint256"
        }
      ],
      "name": "burnFrom",
      "outputs": [],
      "stateMutability": "nonpayable",
      "type": "function"
    },
    {
      "inputs": [],
      "name": "decimals",
      "outputs": [
        {
          "internalType": "uint8",
          "name": "",
          "type": "uint8"
        }
      ],
      "stateMutability": "view",
      "type": "function"
    },
    {
      "inputs": [
        {
          "internalType": "address",
          "name": "spender",
          "type": "address"
        },
        {
          "internalType": "uint256",
          "name": "subtractedValue",
          "type": "uint256"
        }
      ],
      "name": "decreaseAllowance",
      "outputs": [
        {
          "internalType": "bool",
          "name": "",
          "type": "bool"
        }
      ],
      "stateMutability": "nonpayable",
      "type": "function"
    },
    {
      "inputs": [
        {
          "internalType": "bytes32",
          "name": "role",
          "type": "bytes32"
        }
      ],
      "name": "getRoleAdmin",
      "outputs": [
        {
          "internalType": "bytes32",
          "name": "",
          "type": "bytes32"
        }
      ],
      "stateMutability": "view",
      "type": "function"
    },
    {
      "inputs": [
        {
          "internalType": "bytes32",
          "name": "role",
          "type": "bytes32"
        },
        {
          "internalType": "address",
          "name": "account",
          "type": "address"
        }
      ],
      "name": "grantRole",
      "outputs": [],
      "stateMutability": "nonpayable",
      "type": "function"
    },
    {
      "inputs": [
        {
          "internalType": "bytes32",
          "name": "role",
          "type": "bytes32"
        },
        {
          "internalType": "address",
          "name": "account",
          "type": "address"
        }
      ],
      "name": "hasRole",
      "outputs": [
        {
          "internalType": "bool",
          "name": "",
          "type": "bool"
        }
      ],
      "stateMutability": "view",
      "type": "function"
    },
    {
      "inputs": [
        {
          "internalType": "address",
          "name": "spender",
          "type": "address"
        },
        {
          "internalType": "uint256",
          "name": "addedValue",
          "type": "uint256"
        }
      ],
      "name": "increaseAllowance",
      "outputs": [
        {
          "internalType": "bool",
          "name": "",
          "type": "bool"
        }
      ],
      "stateMutability": "nonpayable",
      "type": "function"
    },
    {
      "inputs": [
        {
          "internalType": "address",
          "name": "to",
          "type": "address"
        },
        {
          "internalType": "uint256",
          "name": "amount",
          "type": "uint256"
        }
      ],
      "name": "mint",
      "outputs": [],
      "stateMutability": "nonpayable",
      "type": "function"
    },
    {
      "inputs": [],
      "name": "name",
      "outputs": [
        {
          "internalType": "string",
          "name": "",
          "type": "string"
        }
      ],
      "stateMutability": "view",
      "type": "function"
    },
    {
      "inputs": [
        {
          "internalType": "bytes32",
          "name": "role",
          "type": "bytes32"
        },
        {
          "internalType": "address",
          "name": "account",
          "type": "address"
        }
      ],
      "name": "renounceRole",
      "outputs": [],
      "stateMutability": "nonpayable",
      "type": "function"
    },
    {
      "inputs": [
        {
          "internalType": "bytes32",
          "name": "role",
          "type": "bytes32"
        },
        {
          "internalType": "address",
          "name": "account",
          "type": "address"
        }
      ],
      "name": "revokeRole",
      "outputs": [],
      "stateMutability": "nonpayable",
      "type": "function"
    },
    {
      "inputs": [
        {
          "internalType": "bytes4",
          "name": "interfaceId",
          "type": "bytes4"
        }
      ],
      "name": "supportsInterface",
      "outputs": [
        {
          "internalType": "bool",
          "name": "",
          "type": "bool"
        }
      ],
      "stateMutability": "view",
      "type": "function"
    },
    {
      "inputs": [],
      "name": "symbol",
      "outputs": [
        {
          "internalType": "string",
          "name": "",
          "type": "string"
        }
      ],
      "stateMutability": "view",
      "type": "function"
    },
    {
      "inputs": [],
      "name": "totalSupply",
      "outputs": [
        {
          "internalType": "uint256",
          "name": "",
          "type": "uint256"
        }
      ],
      "stateMutability": "view",
      "type": "function"
    },
    {
      "inputs": [
        {
          "internalType": "address",
          "name": "recipient",
          "type": "address"
        },
        {
          "internalType": "uint256",
          "name": "amount",
          "type": "uint256"
        }
      ],
      "name": "transfer",
      "outputs": [
        {
          "internalType": "bool",
          "name": "",
          "type": "bool"
        }
      ],
      "stateMutability": "nonpayable",
      "type": "function"
    },
    {
      "inputs": [
        {
          "internalType": "address",
          "name": "sender",
          "type": "address"
        },
        {
          "internalType": "address",
          "name": "recipient",
          "type": "address"
        },
        {
          "internalType": "uint256",
          "name": "amount",
          "type": "uint256"
        }
      ],
      "name": "transferFrom",
      "outputs": [
        {
          "internalType": "bool",
          "name": "",
          "type": "bool"
        }
      ],
      "stateMutability": "nonpayable",
      "type": "function"
    }
  ],
  "bytecode": "0x60806040523480156200001157600080fd5b506040518060400160405280600981526020017f50697a7a61436f696e00000000000000000000000000000000000000000000008152506040518060400160405280600381526020017f505a4300000000000000000000000000000000000000000000000000000000008152508160039080519060200190620000969291906200027a565b508060049080519060200190620000af9291906200027a565b505050620000c76000801b33620000ff60201b60201c565b620000f97f9f2df0fed2c77648de5860a4cc508cd0818c85b8b8a1ab4ceeef8d981c8956a633620000ff60201b60201c565b6200038f565b6200011182826200011560201b60201c565b5050565b6200012782826200020760201b60201c565b620002035760016005600084815260200190815260200160002060000160008373ffffffffffffffffffffffffffffffffffffffff1673ffffffffffffffffffffffffffffffffffffffff16815260200190815260200160002060006101000a81548160ff021916908315150217905550620001a86200027260201b60201c565b73ffffffffffffffffffffffffffffffffffffffff168173ffffffffffffffffffffffffffffffffffffffff16837f2f8788117e7eff1d82e926ec794901d17c78024a50270940304540a733656f0d60405160405180910390a45b5050565b60006005600084815260200190815260200160002060000160008373ffffffffffffffffffffffffffffffffffffffff1673ffffffffffffffffffffffffffffffffffffffff16815260200190815260200160002060009054906101000a900460ff16905092915050565b600033905090565b82805462000288906200032a565b90600052602060002090601f016020900481019282620002ac5760008555620002f8565b82601f10620002c757805160ff1916838001178555620002f8565b82800160010185558215620002f8579182015b82811115620002f7578251825591602001919060010190620002da565b5b5090506200030791906200030b565b5090565b5b80821115620003265760008160009055506001016200030c565b5090565b600060028204905060018216806200034357607f821691505b602082108114156200035a576200035962000360565b5b50919050565b7f4e487b7100000000000000000000000000000000000000000000000000000000600052602260045260246000fd5b612818806200039f6000396000f3fe608060405234801561001057600080fd5b506004361061014d5760003560e01c806342966c68116100c3578063a217fddf1161007c578063a217fddf146103d6578063a457c2d7146103f4578063a9059cbb14610424578063d539139314610454578063d547741f14610472578063dd62ed3e1461048e5761014d565b806342966c68146102f057806370a082311461030c57806379cc67901461033c57806391d148541461035857806395d89b41146103885780639dc29fac146103a65761014d565b8063248a9ca311610115578063248a9ca31461021e5780632f2ff15d1461024e578063313ce5671461026a57806336568abe1461028857806339509351146102a457806340c10f19146102d45761014d565b806301ffc9a71461015257806306fdde0314610182578063095ea7b3146101a057806318160ddd146101d057806323b872dd146101ee575b600080fd5b61016c60048036038101906101679190611b7c565b6104be565b6040516101799190611ebb565b60405180910390f35b61018a610538565b6040516101979190611ef1565b60405180910390f35b6101ba60048036038101906101b59190611adb565b6105ca565b6040516101c79190611ebb565b60405180910390f35b6101d86105e8565b6040516101e591906120b3565b60405180910390f35b61020860048036038101906102039190611a8c565b6105f2565b6040516102159190611ebb565b60405180910390f35b61023860048036038101906102339190611b17565b6106ea565b6040516102459190611ed6565b60405180910390f35b61026860048036038101906102639190611b40565b61070a565b005b610272610733565b60405161027f91906120ce565b60405180910390f35b6102a2600480360381019061029d9190611b40565b61073c565b005b6102be60048036038101906102b99190611adb565b6107bf565b6040516102cb9190611ebb565b60405180910390f35b6102ee60048036038101906102e99190611adb565b61086b565b005b61030a60048036038101906103059190611ba5565b6108ac565b005b61032660048036038101906103219190611a27565b6108c0565b60405161033391906120b3565b60405180910390f35b61035660048036038101906103519190611adb565b610908565b005b610372600480360381019061036d9190611b40565b610983565b60405161037f9190611ebb565b60405180910390f35b6103906109ee565b60405161039d9190611ef1565b60405180910390f35b6103c060048036038101906103bb9190611adb565b610a80565b6040516103cd9190611ebb565b60405180910390f35b6103de610a96565b6040516103eb9190611ed6565b60405180910390f35b61040e60048036038101906104099190611adb565b610a9d565b60405161041b9190611ebb565b60405180910390f35b61043e60048036038101906104399190611adb565b610b88565b60405161044b9190611ebb565b60405180910390f35b61045c610ba6565b6040516104699190611ed6565b60405180910390f35b61048c60048036038101906104879190611b40565b610bca565b005b6104a860048036038101906104a39190611a50565b610bf3565b6040516104b591906120b3565b60405180910390f35b60007f7965db0b000000000000000000000000000000000000000000000000000000007bffffffffffffffffffffffffffffffffffffffffffffffffffffffff1916827bffffffffffffffffffffffffffffffffffffffffffffffffffffffff19161480610531575061053082610c7a565b5b9050919050565b606060038054610547906122dc565b80601f0160208091040260200160405190810160405280929190818152602001828054610573906122dc565b80156105c05780601f10610595576101008083540402835291602001916105c0565b820191906000526020600020905b8154815290600101906020018083116105a357829003601f168201915b5050505050905090565b60006105de6105d7610ce4565b8484610cec565b6001905092915050565b6000600254905090565b60006105ff848484610eb7565b6000600160008673ffffffffffffffffffffffffffffffffffffffff1673ffffffffffffffffffffffffffffffffffffffff168152602001908152602001600020600061064a610ce4565b73ffffffffffffffffffffffffffffffffffffffff1673ffffffffffffffffffffffffffffffffffffffff168152602001908152602001600020549050828110156106ca576040517f08c379a00000000000000000000000000000000000000000000000000000000081526004016106c190611fb3565b60405180910390fd5b6106de856106d6610ce4565b858403610cec565b60019150509392505050565b600060056000838152602001908152602001600020600101549050919050565b610713826106ea565b6107248161071f610ce4565b611138565b61072e83836111d5565b505050565b60006012905090565b610744610ce4565b73ffffffffffffffffffffffffffffffffffffffff168173ffffffffffffffffffffffffffffffffffffffff16146107b1576040517f08c379a00000000000000000000000000000000000000000000000000000000081526004016107a890612073565b60405180910390fd5b6107bb82826112b6565b5050565b60006108616107cc610ce4565b8484600160006107da610ce4565b73ffffffffffffffffffffffffffffffffffffffff1673ffffffffffffffffffffffffffffffffffffffff16815260200190815260200160002060008873ffffffffffffffffffffffffffffffffffffffff1673ffffffffffffffffffffffffffffffffffffffff1681526020019081526020016000205461085c9190612110565b610cec565b6001905092915050565b7f9f2df0fed2c77648de5860a4cc508cd0818c85b8b8a1ab4ceeef8d981c8956a661089d81610898610ce4565b611138565b6108a78383611398565b505050565b6108bd6108b7610ce4565b826114f8565b50565b60008060008373ffffffffffffffffffffffffffffffffffffffff1673ffffffffffffffffffffffffffffffffffffffff168152602001908152602001600020549050919050565b600061091b83610916610ce4565b610bf3565b905081811015610960576040517f08c379a000000000000000000000000000000000000000000000000000000000815260040161095790611fd3565b60405180910390fd5b6109748361096c610ce4565b848403610cec565b61097e83836114f8565b505050565b60006005600084815260200190815260200160002060000160008373ffffffffffffffffffffffffffffffffffffffff1673ffffffffffffffffffffffffffffffffffffffff16815260200190815260200160002060009054906101000a900460ff16905092915050565b6060600480546109fd906122dc565b80601f0160208091040260200160405190810160405280929190818152602001828054610a29906122dc565b8015610a765780601f10610a4b57610100808354040283529160200191610a76565b820191906000526020600020905b815481529060010190602001808311610a5957829003601f168201915b5050505050905090565b6000610a8c83836114f8565b6001905092915050565b6000801b81565b60008060016000610aac610ce4565b73ffffffffffffffffffffffffffffffffffffffff1673ffffffffffffffffffffffffffffffffffffffff16815260200190815260200160002060008573ffffffffffffffffffffffffffffffffffffffff1673ffffffffffffffffffffffffffffffffffffffff16815260200190815260200160002054905082811015610b69576040517f08c379a0000000000000000000000000000000000000000000000000000000008152600401610b6090612053565b60405180910390fd5b610b7d610b74610ce4565b85858403610cec565b600191505092915050565b6000610b9c610b95610ce4565b8484610eb7565b6001905092915050565b7f9f2df0fed2c77648de5860a4cc508cd0818c85b8b8a1ab4ceeef8d981c8956a681565b610bd3826106ea565b610be481610bdf610ce4565b611138565b610bee83836112b6565b505050565b6000600160008473ffffffffffffffffffffffffffffffffffffffff1673ffffffffffffffffffffffffffffffffffffffff16815260200190815260200160002060008373ffffffffffffffffffffffffffffffffffffffff1673ffffffffffffffffffffffffffffffffffffffff16815260200190815260200160002054905092915050565b60007f01ffc9a7000000000000000000000000000000000000000000000000000000007bffffffffffffffffffffffffffffffffffffffffffffffffffffffff1916827bffffffffffffffffffffffffffffffffffffffffffffffffffffffff1916149050919050565b600033905090565b600073ffffffffffffffffffffffffffffffffffffffff168373ffffffffffffffffffffffffffffffffffffffff161415610d5c576040517f08c379a0000000000000000000000000000000000000000000000000000000008152600401610d5390612033565b60405180910390fd5b600073ffffffffffffffffffffffffffffffffffffffff168273ffffffffffffffffffffffffffffffffffffffff161415610dcc576040517f08c379a0000000000000000000000000000000000000000000000000000000008152600401610dc390611f73565b60405180910390fd5b80600160008573ffffffffffffffffffffffffffffffffffffffff1673ffffffffffffffffffffffffffffffffffffffff16815260200190815260200160002060008473ffffffffffffffffffffffffffffffffffffffff1673ffffffffffffffffffffffffffffffffffffffff168152602001908152602001600020819055508173ffffffffffffffffffffffffffffffffffffffff168373ffffffffffffffffffffffffffffffffffffffff167f8c5be1e5ebec7d5bd14f71427d1e84f3dd0314c0f7b2291e5b200ac8c7c3b92583604051610eaa91906120b3565b60405180910390a3505050565b600073ffffffffffffffffffffffffffffffffffffffff168373ffffffffffffffffffffffffffffffffffffffff161415610f27576040517f08c379a0000000000000000000000000000000000000000000000000000000008152600401610f1e90612013565b60405180910390fd5b600073ffffffffffffffffffffffffffffffffffffffff168273ffffffffffffffffffffffffffffffffffffffff161415610f97576040517f08c379a0000000000000000000000000000000000000000000000000000000008152600401610f8e90611f33565b60405180910390fd5b610fa28383836116cf565b60008060008573ffffffffffffffffffffffffffffffffffffffff1673ffffffffffffffffffffffffffffffffffffffff16815260200190815260200160002054905081811015611028576040517f08c379a000000000000000000000000000000000000000000000000000000000815260040161101f90611f93565b60405180910390fd5b8181036000808673ffffffffffffffffffffffffffffffffffffffff1673ffffffffffffffffffffffffffffffffffffffff16815260200190815260200160002081905550816000808573ffffffffffffffffffffffffffffffffffffffff1673ffffffffffffffffffffffffffffffffffffffff16815260200190815260200160002060008282546110bb9190612110565b925050819055508273ffffffffffffffffffffffffffffffffffffffff168473ffffffffffffffffffffffffffffffffffffffff167fddf252ad1be2c89b69c2b068fc378daa952ba7f163c4a11628f55a4df523b3ef8460405161111f91906120b3565b60405180910390a36111328484846116d4565b50505050565b6111428282610983565b6111d1576111678173ffffffffffffffffffffffffffffffffffffffff1660146116d9565b6111758360001c60206116d9565b604051602001611186929190611e81565b6040516020818303038152906040526040517f08c379a00000000000000000000000000000000000000000000000000000000081526004016111c89190611ef1565b60405180910390fd5b5050565b6111df8282610983565b6112b25760016005600084815260200190815260200160002060000160008373ffffffffffffffffffffffffffffffffffffffff1673ffffffffffffffffffffffffffffffffffffffff16815260200190815260200160002060006101000a81548160ff021916908315150217905550611257610ce4565b73ffffffffffffffffffffffffffffffffffffffff168173ffffffffffffffffffffffffffffffffffffffff16837f2f8788117e7eff1d82e926ec794901d17c78024a50270940304540a733656f0d60405160405180910390a45b5050565b6112c08282610983565b156113945760006005600084815260200190815260200160002060000160008373ffffffffffffffffffffffffffffffffffffffff1673ffffffffffffffffffffffffffffffffffffffff16815260200190815260200160002060006101000a81548160ff021916908315150217905550611339610ce4565b73ffffffffffffffffffffffffffffffffffffffff168173ffffffffffffffffffffffffffffffffffffffff16837ff6391f5c32d9c69d2a47ea670b442974b53935d1edc7fd64eb21e047a839171b60405160405180910390a45b5050565b600073ffffffffffffffffffffffffffffffffffffffff168273ffffffffffffffffffffffffffffffffffffffff161415611408576040517f08c379a00000000000000000000000000000000000000000000000000000000081526004016113ff90612093565b60405180910390fd5b611414600083836116cf565b80600260008282546114269190612110565b92505081905550806000808473ffffffffffffffffffffffffffffffffffffffff1673ffffffffffffffffffffffffffffffffffffffff168152602001908152602001600020600082825461147b9190612110565b925050819055508173ffffffffffffffffffffffffffffffffffffffff16600073ffffffffffffffffffffffffffffffffffffffff167fddf252ad1be2c89b69c2b068fc378daa952ba7f163c4a11628f55a4df523b3ef836040516114e091906120b3565b60405180910390a36114f4600083836116d4565b5050565b600073ffffffffffffffffffffffffffffffffffffffff168273ffffffffffffffffffffffffffffffffffffffff161415611568576040517f08c379a000000000000000000000000000000000000000000000000000000000815260040161155f90611ff3565b60405180910390fd5b611574826000836116cf565b60008060008473ffffffffffffffffffffffffffffffffffffffff1673ffffffffffffffffffffffffffffffffffffffff168152602001908152602001600020549050818110156115fa576040517f08c379a00000000000000000000000000000000000000000000000000000000081526004016115f190611f53565b60405180910390fd5b8181036000808573ffffffffffffffffffffffffffffffffffffffff1673ffffffffffffffffffffffffffffffffffffffff16815260200190815260200160002081905550816002600082825461165191906121c0565b92505081905550600073ffffffffffffffffffffffffffffffffffffffff168373ffffffffffffffffffffffffffffffffffffffff167fddf252ad1be2c89b69c2b068fc378daa952ba7f163c4a11628f55a4df523b3ef846040516116b691906120b3565b60405180910390a36116ca836000846116d4565b505050565b505050565b505050565b6060600060028360026116ec9190612166565b6116f69190612110565b67ffffffffffffffff811115611735577f4e487b7100000000000000000000000000000000000000000000000000000000600052604160045260246000fd5b6040519080825280601f01601f1916602001820160405280156117675781602001600182028036833780820191505090505b5090507f3000000000000000000000000000000000000000000000000000000000000000816000815181106117c5577f4e487b7100000000000000000000000000000000000000000000000000000000600052603260045260246000fd5b60200101907effffffffffffffffffffffffffffffffffffffffffffffffffffffffffffff1916908160001a9053507f78000000000000000000000000000000000000000000000000000000000000008160018151811061184f577f4e487b7100000000000000000000000000000000000000000000000000000000600052603260045260246000fd5b60200101907effffffffffffffffffffffffffffffffffffffffffffffffffffffffffffff1916908160001a9053506000600184600261188f9190612166565b6118999190612110565b90505b6001811115611985577f3031323334353637383961626364656600000000000000000000000000000000600f861660108110611901577f4e487b7100000000000000000000000000000000000000000000000000000000600052603260045260246000fd5b1a60f81b82828151811061193e577f4e487b7100000000000000000000000000000000000000000000000000000000600052603260045260246000fd5b60200101907effffffffffffffffffffffffffffffffffffffffffffffffffffffffffffff1916908160001a905350600485901c94508061197e906122b2565b905061189c565b50600084146119c9576040517f08c379a00000000000000000000000000000000000000000000000000000000081526004016119c090611f13565b60405180910390fd5b8091505092915050565b6000813590506119e281612786565b92915050565b6000813590506119f78161279d565b92915050565b600081359050611a0c816127b4565b92915050565b600081359050611a21816127cb565b92915050565b600060208284031215611a3957600080fd5b6000611a47848285016119d3565b91505092915050565b60008060408385031215611a6357600080fd5b6000611a71858286016119d3565b9250506020611a82858286016119d3565b9150509250929050565b600080600060608486031215611aa157600080fd5b6000611aaf868287016119d3565b9350506020611ac0868287016119d3565b9250506040611ad186828701611a12565b9150509250925092565b60008060408385031215611aee57600080fd5b6000611afc858286016119d3565b9250506020611b0d85828601611a12565b9150509250929050565b600060208284031215611b2957600080fd5b6000611b37848285016119e8565b91505092915050565b60008060408385031215611b5357600080fd5b6000611b61858286016119e8565b9250506020611b72858286016119d3565b9150509250929050565b600060208284031215611b8e57600080fd5b6000611b9c848285016119fd565b91505092915050565b600060208284031215611bb757600080fd5b6000611bc584828501611a12565b91505092915050565b611bd781612206565b82525050565b611be681612212565b82525050565b6000611bf7826120e9565b611c0181856120f4565b9350611c1181856020860161227f565b611c1a8161236c565b840191505092915050565b6000611c30826120e9565b611c3a8185612105565b9350611c4a81856020860161227f565b80840191505092915050565b6000611c636020836120f4565b9150611c6e8261237d565b602082019050919050565b6000611c866023836120f4565b9150611c91826123a6565b604082019050919050565b6000611ca96022836120f4565b9150611cb4826123f5565b604082019050919050565b6000611ccc6022836120f4565b9150611cd782612444565b604082019050919050565b6000611cef6026836120f4565b9150611cfa82612493565b604082019050919050565b6000611d126028836120f4565b9150611d1d826124e2565b604082019050919050565b6000611d356024836120f4565b9150611d4082612531565b604082019050919050565b6000611d586021836120f4565b9150611d6382612580565b604082019050919050565b6000611d7b6025836120f4565b9150611d86826125cf565b604082019050919050565b6000611d9e6024836120f4565b9150611da98261261e565b604082019050919050565b6000611dc1601783612105565b9150611dcc8261266d565b601782019050919050565b6000611de46025836120f4565b9150611def82612696565b604082019050919050565b6000611e07601183612105565b9150611e12826126e5565b601182019050919050565b6000611e2a602f836120f4565b9150611e358261270e565b604082019050919050565b6000611e4d601f836120f4565b9150611e588261275d565b602082019050919050565b611e6c81612268565b82525050565b611e7b81612272565b82525050565b6000611e8c82611db4565b9150611e988285611c25565b9150611ea382611dfa565b9150611eaf8284611c25565b91508190509392505050565b6000602082019050611ed06000830184611bce565b92915050565b6000602082019050611eeb6000830184611bdd565b92915050565b60006020820190508181036000830152611f0b8184611bec565b905092915050565b60006020820190508181036000830152611f2c81611c56565b9050919050565b60006020820190508181036000830152611f4c81611c79565b9050919050565b60006020820190508181036000830152611f6c81611c9c565b9050919050565b60006020820190508181036000830152611f8c81611cbf565b9050919050565b60006020820190508181036000830152611fac81611ce2565b9050919050565b60006020820190508181036000830152611fcc81611d05565b9050919050565b60006020820190508181036000830152611fec81611d28565b9050919050565b6000602082019050818103600083015261200c81611d4b565b9050919050565b6000602082019050818103600083015261202c81611d6e565b9050919050565b6000602082019050818103600083015261204c81611d91565b9050919050565b6000602082019050818103600083015261206c81611dd7565b9050919050565b6000602082019050818103600083015261208c81611e1d565b9050919050565b600060208201905081810360008301526120ac81611e40565b9050919050565b60006020820190506120c86000830184611e63565b92915050565b60006020820190506120e36000830184611e72565b92915050565b600081519050919050565b600082825260208201905092915050565b600081905092915050565b600061211b82612268565b915061212683612268565b9250827fffffffffffffffffffffffffffffffffffffffffffffffffffffffffffffffff0382111561215b5761215a61230e565b5b828201905092915050565b600061217182612268565b915061217c83612268565b9250817fffffffffffffffffffffffffffffffffffffffffffffffffffffffffffffffff04831182151516156121b5576121b461230e565b5b828202905092915050565b60006121cb82612268565b91506121d683612268565b9250828210156121e9576121e861230e565b5b828203905092915050565b60006121ff82612248565b9050919050565b60008115159050919050565b6000819050919050565b60007fffffffff0000000000000000000000000000000000000000000000000000000082169050919050565b600073ffffffffffffffffffffffffffffffffffffffff82169050919050565b6000819050919050565b600060ff82169050919050565b60005b8381101561229d578082015181840152602081019050612282565b838111156122ac576000848401525b50505050565b60006122bd82612268565b915060008214156122d1576122d061230e565b5b600182039050919050565b600060028204905060018216806122f457607f821691505b602082108114156123085761230761233d565b5b50919050565b7f4e487b7100000000000000000000000000000000000000000000000000000000600052601160045260246000fd5b7f4e487b7100000000000000000000000000000000000000000000000000000000600052602260045260246000fd5b6000601f19601f8301169050919050565b7f537472696e67733a20686578206c656e67746820696e73756666696369656e74600082015250565b7f45524332303a207472616e7366657220746f20746865207a65726f206164647260008201527f6573730000000000000000000000000000000000000000000000000000000000602082015250565b7f45524332303a206275726e20616d6f756e7420657863656564732062616c616e60008201527f6365000000000000000000000000000000000000000000000000000000000000602082015250565b7f45524332303a20617070726f766520746f20746865207a65726f20616464726560008201527f7373000000000000000000000000000000000000000000000000000000000000602082015250565b7f45524332303a207472616e7366657220616d6f756e742065786365656473206260008201527f616c616e63650000000000000000000000000000000000000000000000000000602082015250565b7f45524332303a207472616e7366657220616d6f756e742065786365656473206160008201527f6c6c6f77616e6365000000000000000000000000000000000000000000000000602082015250565b7f45524332303a206275726e20616d6f756e74206578636565647320616c6c6f7760008201527f616e636500000000000000000000000000000000000000000000000000000000602082015250565b7f45524332303a206275726e2066726f6d20746865207a65726f2061646472657360008201527f7300000000000000000000000000000000000000000000000000000000000000602082015250565b7f45524332303a207472616e736665722066726f6d20746865207a65726f20616460008201527f6472657373000000000000000000000000000000000000000000000000000000602082015250565b7f45524332303a20617070726f76652066726f6d20746865207a65726f2061646460008201527f7265737300000000000000000000000000000000000000000000000000000000602082015250565b7f416363657373436f6e74726f6c3a206163636f756e7420000000000000000000600082015250565b7f45524332303a2064656372656173656420616c6c6f77616e63652062656c6f7760008201527f207a65726f000000000000000000000000000000000000000000000000000000602082015250565b7f206973206d697373696e6720726f6c6520000000000000000000000000000000600082015250565b7f416363657373436f6e74726f6c3a2063616e206f6e6c792072656e6f756e636560008201527f20726f6c657320666f722073656c660000000000000000000000000000000000602082015250565b7f45524332303a206d696e7420746f20746865207a65726f206164647265737300600082015250565b61278f816121f4565b811461279a57600080fd5b50565b6127a681612212565b81146127b157600080fd5b50565b6127bd8161221c565b81146127c857600080fd5b50565b6127d481612268565b81146127df57600080fd5b5056fea26469706673582212205b8c47fa574504b16ab2e7fdb2899a12ee5310f60554b1bd195e85142be1c78964736f6c63430008030033",
  "linkReferences": {},
  "deployedLinkReferences": {}
}