{
  "_format": "hh-sol-artifact-1",
  "contractName": "PizzaToken",
  "sourceName": "contracts/PizzaToken.sol",
  "abi": [
    {
      "inputs": [],
      "stateMutability": "nonpayable",
      "type": "constructor"
    },
    {
      "anonymous": false,
      "inputs": [
        {
          "indexed": true,
          "internalType": "address",
          "name": "owner",
          "type": "address"
        },
        {
          "indexed": true,
          "internalType": "address",
          "name": "approved",
          "type": "address"
        },
        {
          "indexed": true,
          "internalType": "uint256",
          "name": "tokenId",
          "type": "uint256"
        }
      ],
      "name": "Approval",
      "type": "event"
    },
    {
      "anonymous": false,
      "inputs": [
        {
          "indexed": true,
          "internalType": "address",
          "name": "owner",
          "type": "address"
        },
        {
          "indexed": true,
          "internalType": "address",
          "name": "operator",
          "type": "address"
        },
        {
          "indexed": false,
          "internalType": "bool",
          "name": "approved",
          "type": "bool"
        }
      ],
      "name": "ApprovalForAll",
      "type": "event"
    },
    {
      "anonymous": false,
      "inputs": [
        {
          "indexed": false,
          "internalType": "address",
          "name": "account",
          "type": "address"
        }
      ],
      "name": "Paused",
      "type": "event"
    },
    {
      "anonymous": false,
      "inputs": [
        {
          "indexed": true,
          "internalType": "bytes32",
          "name": "role",
          "type": "bytes32"
        },
        {
          "indexed": true,
          "internalType": "bytes32",
          "name": "previousAdminRole",
          "type": "bytes32"
        },
        {
          "indexed": true,
          "internalType": "bytes32",
          "name": "newAdminRole",
          "type": "bytes32"
        }
      ],
      "name": "RoleAdminChanged",
      "type": "event"
    },
    {
      "anonymous": false,
      "inputs": [
        {
          "indexed": true,
          "internalType": "bytes32",
          "name": "role",
          "type": "bytes32"
        },
        {
          "indexed": true,
          "internalType": "address",
          "name": "account",
          "type": "address"
        },
        {
          "indexed": true,
          "internalType": "address",
          "name": "sender",
          "type": "address"
        }
      ],
      "name": "RoleGranted",
      "type": "event"
    },
    {
      "anonymous": false,
      "inputs": [
        {
          "indexed": true,
          "internalType": "bytes32",
          "name": "role",
          "type": "bytes32"
        },
        {
          "indexed": true,
          "internalType": "address",
          "name": "account",
          "type": "address"
        },
        {
          "indexed": true,
          "internalType": "address",
          "name": "sender",
          "type": "address"
        }
      ],
      "name": "RoleRevoked",
      "type": "event"
    },
    {
      "anonymous": false,
      "inputs": [
        {
          "indexed": true,
          "internalType": "address",
          "name": "from",
          "type": "address"
        },
        {
          "indexed": true,
          "internalType": "address",
          "name": "to",
          "type": "address"
        },
        {
          "indexed": true,
          "internalType": "uint256",
          "name": "tokenId",
          "type": "uint256"
        }
      ],
      "name": "Transfer",
      "type": "event"
    },
    {
      "anonymous": false,
      "inputs": [
        {
          "indexed": false,
          "internalType": "address",
          "name": "account",
          "type": "address"
        }
      ],
      "name": "Unpaused",
      "type": "event"
    },
    {
      "inputs": [],
      "name": "COIN_MINT_AMOUNT",
      "outputs": [
        {
          "internalType": "uint256",
          "name": "",
          "type": "uint256"
        }
      ],
      "stateMutability": "view",
      "type": "function"
    },
    {
      "inputs": [],
      "name": "DEFAULT_ADMIN_ROLE",
      "outputs": [
        {
          "internalType": "bytes32",
          "name": "",
          "type": "bytes32"
        }
      ],
      "stateMutability": "view",
      "type": "function"
    },
    {
      "inputs": [],
      "name": "MINTER_ROLE",
      "outputs": [
        {
          "internalType": "bytes32",
          "name": "",
          "type": "bytes32"
        }
      ],
      "stateMutability": "view",
      "type": "function"
    },
    {
      "inputs": [],
      "name": "PAUSER_ROLE",
      "outputs": [
        {
          "internalType": "bytes32",
          "name": "",
          "type": "bytes32"
        }
      ],
      "stateMutability": "view",
      "type": "function"
    },
    {
      "inputs": [
        {
          "internalType": "address",
          "name": "to",
          "type": "address"
        },
        {
          "internalType": "uint256",
          "name": "tokenId",
          "type": "uint256"
        }
      ],
      "name": "approve",
      "outputs": [],
      "stateMutability": "nonpayable",
      "type": "function"
    },
    {
      "inputs": [
        {
          "internalType": "address",
          "name": "owner",
          "type": "address"
        }
      ],
      "name": "balanceOf",
      "outputs": [
        {
          "internalType": "uint256",
          "name": "",
          "type": "uint256"
        }
      ],
      "stateMutability": "view",
      "type": "function"
    },
    {
      "inputs": [
        {
          "internalType": "uint256",
          "name": "tokenId",
          "type": "uint256"
        }
      ],
      "name": "burn",
      "outputs": [],
      "stateMutability": "nonpayable",
      "type": "function"
    },
    {
      "inputs": [
        {
          "internalType": "uint256",
          "name": "tokenId",
          "type": "uint256"
        }
      ],
      "name": "getApproved",
      "outputs": [
        {
          "internalType": "address",
          "name": "",
          "type": "address"
        }
      ],
      "stateMutability": "view",
      "type": "function"
    },
    {
      "inputs": [
        {
          "internalType": "bytes32",
          "name": "role",
          "type": "bytes32"
        }
      ],
      "name": "getRoleAdmin",
      "outputs": [
        {
          "internalType": "bytes32",
          "name": "",
          "type": "bytes32"
        }
      ],
      "stateMutability": "view",
      "type": "function"
    },
    {
      "inputs": [],
      "name": "getTokenAddress",
      "outputs": [
        {
          "internalType": "address",
          "name": "",
          "type": "address"
        }
      ],
      "stateMutability": "view",
      "type": "function"
    },
    {
      "inputs": [
        {
          "internalType": "bytes32",
          "name": "role",
          "type": "bytes32"
        },
        {
          "internalType": "address",
          "name": "account",
          "type": "address"
        }
      ],
      "name": "grantRole",
      "outputs": [],
      "stateMutability": "nonpayable",
      "type": "function"
    },
    {
      "inputs": [
        {
          "internalType": "bytes32",
          "name": "role",
          "type": "bytes32"
        },
        {
          "internalType": "address",
          "name": "account",
          "type": "address"
        }
      ],
      "name": "hasRole",
      "outputs": [
        {
          "internalType": "bool",
          "name": "",
          "type": "bool"
        }
      ],
      "stateMutability": "view",
      "type": "function"
    },
    {
      "inputs": [
        {
          "internalType": "address",
          "name": "owner",
          "type": "address"
        },
        {
          "internalType": "address",
          "name": "operator",
          "type": "address"
        }
      ],
      "name": "isApprovedForAll",
      "outputs": [
        {
          "internalType": "bool",
          "name": "",
          "type": "bool"
        }
      ],
      "stateMutability": "view",
      "type": "function"
    },
    {
      "inputs": [],
      "name": "name",
      "outputs": [
        {
          "internalType": "string",
          "name": "",
          "type": "string"
        }
      ],
      "stateMutability": "view",
      "type": "function"
    },
    {
      "inputs": [
        {
          "internalType": "uint256",
          "name": "tokenId",
          "type": "uint256"
        }
      ],
      "name": "ownerOf",
      "outputs": [
        {
          "internalType": "address",
          "name": "",
          "type": "address"
        }
      ],
      "stateMutability": "view",
      "type": "function"
    },
    {
      "inputs": [],
      "name": "pause",
      "outputs": [],
      "stateMutability": "nonpayable",
      "type": "function"
    },
    {
      "inputs": [],
      "name": "paused",
      "outputs": [
        {
          "internalType": "bool",
          "name": "",
          "type": "bool"
        }
      ],
      "stateMutability": "view",
      "type": "function"
    },
    {
      "inputs": [],
      "name": "pizzaCoinAddr",
      "outputs": [
        {
          "internalType": "address",
          "name": "",
          "type": "address"
        }
      ],
      "stateMutability": "view",
      "type": "function"
    },
    {
      "inputs": [
        {
          "internalType": "bytes32",
          "name": "role",
          "type": "bytes32"
        },
        {
          "internalType": "address",
          "name": "account",
          "type": "address"
        }
      ],
      "name": "renounceRole",
      "outputs": [],
      "stateMutability": "nonpayable",
      "type": "function"
    },
    {
      "inputs": [
        {
          "internalType": "bytes32",
          "name": "role",
          "type": "bytes32"
        },
        {
          "internalType": "address",
          "name": "account",
          "type": "address"
        }
      ],
      "name": "revokeRole",
      "outputs": [],
      "stateMutability": "nonpayable",
      "type": "function"
    },
    {
      "inputs": [
        {
          "internalType": "address",
          "name": "to",
          "type": "address"
        },
        {
          "internalType": "string",
          "name": "_tokenURI",
          "type": "string"
        }
      ],
      "name": "safeMint",
      "outputs": [],
      "stateMutability": "nonpayable",
      "type": "function"
    },
    {
      "inputs": [
        {
          "internalType": "address",
          "name": "from",
          "type": "address"
        },
        {
          "internalType": "address",
          "name": "to",
          "type": "address"
        },
        {
          "internalType": "uint256",
          "name": "tokenId",
          "type": "uint256"
        }
      ],
      "name": "safeTransferFrom",
      "outputs": [],
      "stateMutability": "nonpayable",
      "type": "function"
    },
    {
      "inputs": [
        {
          "internalType": "address",
          "name": "from",
          "type": "address"
        },
        {
          "internalType": "address",
          "name": "to",
          "type": "address"
        },
        {
          "internalType": "uint256",
          "name": "tokenId",
          "type": "uint256"
        },
        {
          "internalType": "bytes",
          "name": "_data",
          "type": "bytes"
        }
      ],
      "name": "safeTransferFrom",
      "outputs": [],
      "stateMutability": "nonpayable",
      "type": "function"
    },
    {
      "inputs": [
        {
          "internalType": "address",
          "name": "operator",
          "type": "address"
        },
        {
          "internalType": "bool",
          "name": "approved",
          "type": "bool"
        }
      ],
      "name": "setApprovalForAll",
      "outputs": [],
      "stateMutability": "nonpayable",
      "type": "function"
    },
    {
      "inputs": [
        {
          "internalType": "bytes4",
          "name": "interfaceId",
          "type": "bytes4"
        }
      ],
      "name": "supportsInterface",
      "outputs": [
        {
          "internalType": "bool",
          "name": "",
          "type": "bool"
        }
      ],
      "stateMutability": "view",
      "type": "function"
    },
    {
      "inputs": [],
      "name": "symbol",
      "outputs": [
        {
          "internalType": "string",
          "name": "",
          "type": "string"
        }
      ],
      "stateMutability": "view",
      "type": "function"
    },
    {
      "inputs": [
        {
          "internalType": "uint256",
          "name": "index",
          "type": "uint256"
        }
      ],
      "name": "tokenByIndex",
      "outputs": [
        {
          "internalType": "uint256",
          "name": "",
          "type": "uint256"
        }
      ],
      "stateMutability": "view",
      "type": "function"
    },
    {
      "inputs": [
        {
          "internalType": "address",
          "name": "owner",
          "type": "address"
        },
        {
          "internalType": "uint256",
          "name": "index",
          "type": "uint256"
        }
      ],
      "name": "tokenOfOwnerByIndex",
      "outputs": [
        {
          "internalType": "uint256",
          "name": "",
          "type": "uint256"
        }
      ],
      "stateMutability": "view",
      "type": "function"
    },
    {
      "inputs": [
        {
          "internalType": "uint256",
          "name": "tokenId",
          "type": "uint256"
        }
      ],
      "name": "tokenURI",
      "outputs": [
        {
          "internalType": "string",
          "name": "",
          "type": "string"
        }
      ],
      "stateMutability": "view",
      "type": "function"
    },
    {
      "inputs": [],
      "name": "totalSupply",
      "outputs": [
        {
          "internalType": "uint256",
          "name": "",
          "type": "uint256"
        }
      ],
      "stateMutability": "view",
      "type": "function"
    },
    {
      "inputs": [
        {
          "internalType": "address",
          "name": "from",
          "type": "address"
        },
        {
          "internalType": "address",
          "name": "to",
          "type": "address"
        },
        {
          "internalType": "uint256",
          "name": "tokenId",
          "type": "uint256"
        }
      ],
      "name": "transferFrom",
      "outputs": [],
      "stateMutability": "nonpayable",
      "type": "function"
    },
    {
      "inputs": [],
      "name": "unpause",
      "outputs": [],
      "stateMutability": "nonpayable",
      "type": "function"
    }
  ],
  "bytecode": "0x60806040523480156200001157600080fd5b506040518060400160405280600a81526020017f50697a7a61546f6b656e000000000000000000000000000000000000000000008152506040518060400160405280600381526020017f505a5a00000000000000000000000000000000000000000000000000000000008152508160009080519060200190620000969291906200034a565b508060019080519060200190620000af9291906200034a565b5050506000600b60006101000a81548160ff021916908315150217905550620000e26000801b336200019c60201b60201c565b620001147f65d7a28e3265b37a6474929f336521b332c1681b933f6cb9f3376673440d862a336200019c60201b60201c565b620001467f9f2df0fed2c77648de5860a4cc508cd0818c85b8b8a1ab4ceeef8d981c8956a6336200019c60201b60201c565b62000156620001b260201b60201c565b600d60006101000a81548173ffffffffffffffffffffffffffffffffffffffff021916908373ffffffffffffffffffffffffffffffffffffffff1602179055506200046d565b620001ae8282620001e560201b60201c565b5050565b6000604051620001c290620003db565b604051809103906000f080158015620001df573d6000803e3d6000fd5b50905090565b620001f78282620002d760201b60201c565b620002d3576001600c600084815260200190815260200160002060000160008373ffffffffffffffffffffffffffffffffffffffff1673ffffffffffffffffffffffffffffffffffffffff16815260200190815260200160002060006101000a81548160ff021916908315150217905550620002786200034260201b60201c565b73ffffffffffffffffffffffffffffffffffffffff168173ffffffffffffffffffffffffffffffffffffffff16837f2f8788117e7eff1d82e926ec794901d17c78024a50270940304540a733656f0d60405160405180910390a45b5050565b6000600c600084815260200190815260200160002060000160008373ffffffffffffffffffffffffffffffffffffffff1673ffffffffffffffffffffffffffffffffffffffff16815260200190815260200160002060009054906101000a900460ff16905092915050565b600033905090565b828054620003589062000408565b90600052602060002090601f0160209004810192826200037c5760008555620003c8565b82601f106200039757805160ff1916838001178555620003c8565b82800160010185558215620003c8579182015b82811115620003c7578251825591602001919060010190620003aa565b5b509050620003d79190620003e9565b5090565b612b668062004ccd83390190565b5b8082111562000404576000816000905550600101620003ea565b5090565b600060028204905060018216806200042157607f821691505b602082108114156200043857620004376200043e565b5b50919050565b7f4e487b7100000000000000000000000000000000000000000000000000000000600052602260045260246000fd5b614850806200047d6000396000f3fe608060405234801561001057600080fd5b50600436106101f05760003560e01c80635c975abb1161010f578063b88d4fde116100a2578063d547741f11610071578063d547741f146105a5578063dccb08d1146105c1578063e63ab1e9146105df578063e985e9c5146105fd576101f0565b8063b88d4fde1461051f578063c87b56dd1461053b578063d204c45e1461056b578063d539139314610587576101f0565b806391d14854116100de57806391d148541461049757806395d89b41146104c7578063a217fddf146104e5578063a22cb46514610503576101f0565b80635c975abb1461040f5780636352211e1461042d57806370a082311461045d5780638456cb591461048d576101f0565b80632f2ff15d116101875780633f4ba83a116101565780633f4ba83a1461039d57806342842e0e146103a757806342966c68146103c35780634f6ccce7146103df576101f0565b80632f2ff15d146103175780632f745c59146103335780633542cfaf1461036357806336568abe14610381576101f0565b806310fe9ae8116101c357806310fe9ae81461028f57806318160ddd146102ad57806323b872dd146102cb578063248a9ca3146102e7576101f0565b806301ffc9a7146101f557806306fdde0314610225578063081812fc14610243578063095ea7b314610273575b600080fd5b61020f600480360381019061020a91906133a7565b61062d565b60405161021c919061395a565b60405180910390f35b61022d61063f565b60405161023a9190613990565b60405180910390f35b61025d600480360381019061025891906133f9565b6106d1565b60405161026a91906138ca565b60405180910390f35b61028d60048036038101906102889190613306565b610756565b005b61029761086e565b6040516102a491906138ca565b60405180910390f35b6102b5610898565b6040516102c29190613c92565b60405180910390f35b6102e560048036038101906102e091906131ac565b6108a5565b005b61030160048036038101906102fc9190613342565b610905565b60405161030e9190613975565b60405180910390f35b610331600480360381019061032c919061336b565b610925565b005b61034d60048036038101906103489190613306565b61094e565b60405161035a9190613c92565b60405180910390f35b61036b6109f3565b60405161037891906138ca565b60405180910390f35b61039b6004803603810190610396919061336b565b610a19565b005b6103a5610a9c565b005b6103c160048036038101906103bc91906131ac565b610ad9565b005b6103dd60048036038101906103d891906133f9565b610af9565b005b6103f960048036038101906103f491906133f9565b610b55565b6040516104069190613c92565b60405180910390f35b610417610bec565b604051610424919061395a565b60405180910390f35b610447600480360381019061044291906133f9565b610c03565b60405161045491906138ca565b60405180910390f35b61047760048036038101906104729190613147565b610cb5565b6040516104849190613c92565b60405180910390f35b610495610d6d565b005b6104b160048036038101906104ac919061336b565b610daa565b6040516104be919061395a565b60405180910390f35b6104cf610e15565b6040516104dc9190613990565b60405180910390f35b6104ed610ea7565b6040516104fa9190613975565b60405180910390f35b61051d60048036038101906105189190613276565b610eae565b005b610539600480360381019061053491906131fb565b61102f565b005b610555600480360381019061055091906133f9565b611091565b6040516105629190613990565b60405180910390f35b610585600480360381019061058091906132b2565b6110a3565b005b61058f611112565b60405161059c9190613975565b60405180910390f35b6105bf60048036038101906105ba919061336b565b611136565b005b6105c961115f565b6040516105d69190613c92565b60405180910390f35b6105e7611164565b6040516105f49190613975565b60405180910390f35b61061760048036038101906106129190613170565b611188565b604051610624919061395a565b60405180910390f35b60006106388261121c565b9050919050565b60606000805461064e90613f76565b80601f016020809104026020016040519081016040528092919081815260200182805461067a90613f76565b80156106c75780601f1061069c576101008083540402835291602001916106c7565b820191906000526020600020905b8154815290600101906020018083116106aa57829003601f168201915b5050505050905090565b60006106dc82611296565b61071b576040517f08c379a000000000000000000000000000000000000000000000000000000000815260040161071290613b92565b60405180910390fd5b6004600083815260200190815260200160002060009054906101000a900473ffffffffffffffffffffffffffffffffffffffff169050919050565b600061076182610c03565b90508073ffffffffffffffffffffffffffffffffffffffff168373ffffffffffffffffffffffffffffffffffffffff1614156107d2576040517f08c379a00000000000000000000000000000000000000000000000000000000081526004016107c990613bf2565b60405180910390fd5b8073ffffffffffffffffffffffffffffffffffffffff166107f1611302565b73ffffffffffffffffffffffffffffffffffffffff161480610820575061081f8161081a611302565b611188565b5b61085f576040517f08c379a000000000000000000000000000000000000000000000000000000000815260040161085690613ad2565b60405180910390fd5b610869838361130a565b505050565b6000600d60009054906101000a900473ffffffffffffffffffffffffffffffffffffffff16905090565b6000600880549050905090565b6108b66108b0611302565b826113c3565b6108f5576040517f08c379a00000000000000000000000000000000000000000000000000000000081526004016108ec90613c12565b60405180910390fd5b6109008383836114a1565b505050565b6000600c6000838152602001908152602001600020600101549050919050565b61092e82610905565b61093f8161093a611302565b6116fd565b610949838361179a565b505050565b600061095983610cb5565b821061099a576040517f08c379a0000000000000000000000000000000000000000000000000000000008152600401610991906139f2565b60405180910390fd5b600660008473ffffffffffffffffffffffffffffffffffffffff1673ffffffffffffffffffffffffffffffffffffffff168152602001908152602001600020600083815260200190815260200160002054905092915050565b600d60009054906101000a900473ffffffffffffffffffffffffffffffffffffffff1681565b610a21611302565b73ffffffffffffffffffffffffffffffffffffffff168173ffffffffffffffffffffffffffffffffffffffff1614610a8e576040517f08c379a0000000000000000000000000000000000000000000000000000000008152600401610a8590613c72565b60405180910390fd5b610a98828261187b565b5050565b610ac67f65d7a28e3265b37a6474929f336521b332c1681b933f6cb9f3376673440d862a33610daa565b610acf57600080fd5b610ad761195d565b565b610af48383836040518060200160405280600081525061102f565b505050565b610b0a610b04611302565b826113c3565b610b49576040517f08c379a0000000000000000000000000000000000000000000000000000000008152600401610b4090613c52565b60405180910390fd5b610b52816119ff565b50565b6000610b5f610898565b8210610ba0576040517f08c379a0000000000000000000000000000000000000000000000000000000008152600401610b9790613c32565b60405180910390fd5b60088281548110610bda577f4e487b7100000000000000000000000000000000000000000000000000000000600052603260045260246000fd5b90600052602060002001549050919050565b6000600b60009054906101000a900460ff16905090565b6000806002600084815260200190815260200160002060009054906101000a900473ffffffffffffffffffffffffffffffffffffffff169050600073ffffffffffffffffffffffffffffffffffffffff168173ffffffffffffffffffffffffffffffffffffffff161415610cac576040517f08c379a0000000000000000000000000000000000000000000000000000000008152600401610ca390613b12565b60405180910390fd5b80915050919050565b60008073ffffffffffffffffffffffffffffffffffffffff168273ffffffffffffffffffffffffffffffffffffffff161415610d26576040517f08c379a0000000000000000000000000000000000000000000000000000000008152600401610d1d90613af2565b60405180910390fd5b600360008373ffffffffffffffffffffffffffffffffffffffff1673ffffffffffffffffffffffffffffffffffffffff168152602001908152602001600020549050919050565b610d977f65d7a28e3265b37a6474929f336521b332c1681b933f6cb9f3376673440d862a33610daa565b610da057600080fd5b610da8611a0b565b565b6000600c600084815260200190815260200160002060000160008373ffffffffffffffffffffffffffffffffffffffff1673ffffffffffffffffffffffffffffffffffffffff16815260200190815260200160002060009054906101000a900460ff16905092915050565b606060018054610e2490613f76565b80601f0160208091040260200160405190810160405280929190818152602001828054610e5090613f76565b8015610e9d5780601f10610e7257610100808354040283529160200191610e9d565b820191906000526020600020905b815481529060010190602001808311610e8057829003601f168201915b5050505050905090565b6000801b81565b610eb6611302565b73ffffffffffffffffffffffffffffffffffffffff168273ffffffffffffffffffffffffffffffffffffffff161415610f24576040517f08c379a0000000000000000000000000000000000000000000000000000000008152600401610f1b90613a72565b60405180910390fd5b8060056000610f31611302565b73ffffffffffffffffffffffffffffffffffffffff1673ffffffffffffffffffffffffffffffffffffffff16815260200190815260200160002060008473ffffffffffffffffffffffffffffffffffffffff1673ffffffffffffffffffffffffffffffffffffffff16815260200190815260200160002060006101000a81548160ff0219169083151502179055508173ffffffffffffffffffffffffffffffffffffffff16610fde611302565b73ffffffffffffffffffffffffffffffffffffffff167f17307eab39ab6107e8899845ad3d59bd9653f200f220920489ca2b5937696c3183604051611023919061395a565b60405180910390a35050565b61104061103a611302565b836113c3565b61107f576040517f08c379a000000000000000000000000000000000000000000000000000000000815260040161107690613c12565b60405180910390fd5b61108b84848484611aae565b50505050565b606061109c82611b0a565b9050919050565b6110cd7f9f2df0fed2c77648de5860a4cc508cd0818c85b8b8a1ab4ceeef8d981c8956a633610daa565b6110d657600080fd5b60006110e2600e611c5c565b90506110ee600e611c6a565b6110f88382611c80565b6111028183611c9e565b61110d836001611d12565b505050565b7f9f2df0fed2c77648de5860a4cc508cd0818c85b8b8a1ab4ceeef8d981c8956a681565b61113f82610905565b6111508161114b611302565b6116fd565b61115a838361187b565b505050565b600181565b7f65d7a28e3265b37a6474929f336521b332c1681b933f6cb9f3376673440d862a81565b6000600560008473ffffffffffffffffffffffffffffffffffffffff1673ffffffffffffffffffffffffffffffffffffffff16815260200190815260200160002060008373ffffffffffffffffffffffffffffffffffffffff1673ffffffffffffffffffffffffffffffffffffffff16815260200190815260200160002060009054906101000a900460ff16905092915050565b60007f7965db0b000000000000000000000000000000000000000000000000000000007bffffffffffffffffffffffffffffffffffffffffffffffffffffffff1916827bffffffffffffffffffffffffffffffffffffffffffffffffffffffff1916148061128f575061128e82611da5565b5b9050919050565b60008073ffffffffffffffffffffffffffffffffffffffff166002600084815260200190815260200160002060009054906101000a900473ffffffffffffffffffffffffffffffffffffffff1673ffffffffffffffffffffffffffffffffffffffff1614159050919050565b600033905090565b816004600083815260200190815260200160002060006101000a81548173ffffffffffffffffffffffffffffffffffffffff021916908373ffffffffffffffffffffffffffffffffffffffff160217905550808273ffffffffffffffffffffffffffffffffffffffff1661137d83610c03565b73ffffffffffffffffffffffffffffffffffffffff167f8c5be1e5ebec7d5bd14f71427d1e84f3dd0314c0f7b2291e5b200ac8c7c3b92560405160405180910390a45050565b60006113ce82611296565b61140d576040517f08c379a000000000000000000000000000000000000000000000000000000000815260040161140490613a92565b60405180910390fd5b600061141883610c03565b90508073ffffffffffffffffffffffffffffffffffffffff168473ffffffffffffffffffffffffffffffffffffffff16148061148757508373ffffffffffffffffffffffffffffffffffffffff1661146f846106d1565b73ffffffffffffffffffffffffffffffffffffffff16145b8061149857506114978185611188565b5b91505092915050565b8273ffffffffffffffffffffffffffffffffffffffff166114c182610c03565b73ffffffffffffffffffffffffffffffffffffffff1614611517576040517f08c379a000000000000000000000000000000000000000000000000000000000815260040161150e90613bb2565b60405180910390fd5b600073ffffffffffffffffffffffffffffffffffffffff168273ffffffffffffffffffffffffffffffffffffffff161415611587576040517f08c379a000000000000000000000000000000000000000000000000000000000815260040161157e90613a52565b60405180910390fd5b611592838383611e1f565b61159d60008261130a565b6001600360008573ffffffffffffffffffffffffffffffffffffffff1673ffffffffffffffffffffffffffffffffffffffff16815260200190815260200160002060008282546115ed9190613e58565b925050819055506001600360008473ffffffffffffffffffffffffffffffffffffffff1673ffffffffffffffffffffffffffffffffffffffff16815260200190815260200160002060008282546116449190613d77565b92505081905550816002600083815260200190815260200160002060006101000a81548173ffffffffffffffffffffffffffffffffffffffff021916908373ffffffffffffffffffffffffffffffffffffffff160217905550808273ffffffffffffffffffffffffffffffffffffffff168473ffffffffffffffffffffffffffffffffffffffff167fddf252ad1be2c89b69c2b068fc378daa952ba7f163c4a11628f55a4df523b3ef60405160405180910390a4505050565b6117078282610daa565b6117965761172c8173ffffffffffffffffffffffffffffffffffffffff166014611e77565b61173a8360001c6020611e77565b60405160200161174b929190613890565b6040516020818303038152906040526040517f08c379a000000000000000000000000000000000000000000000000000000000815260040161178d9190613990565b60405180910390fd5b5050565b6117a48282610daa565b611877576001600c600084815260200190815260200160002060000160008373ffffffffffffffffffffffffffffffffffffffff1673ffffffffffffffffffffffffffffffffffffffff16815260200190815260200160002060006101000a81548160ff02191690831515021790555061181c611302565b73ffffffffffffffffffffffffffffffffffffffff168173ffffffffffffffffffffffffffffffffffffffff16837f2f8788117e7eff1d82e926ec794901d17c78024a50270940304540a733656f0d60405160405180910390a45b5050565b6118858282610daa565b15611959576000600c600084815260200190815260200160002060000160008373ffffffffffffffffffffffffffffffffffffffff1673ffffffffffffffffffffffffffffffffffffffff16815260200190815260200160002060006101000a81548160ff0219169083151502179055506118fe611302565b73ffffffffffffffffffffffffffffffffffffffff168173ffffffffffffffffffffffffffffffffffffffff16837ff6391f5c32d9c69d2a47ea670b442974b53935d1edc7fd64eb21e047a839171b60405160405180910390a45b5050565b611965610bec565b6119a4576040517f08c379a000000000000000000000000000000000000000000000000000000000815260040161199b906139d2565b60405180910390fd5b6000600b60006101000a81548160ff0219169083151502179055507f5db9ee0a495bf2e6ff9c91a7834c1ba4fdd244a5e8aa4e537bd38aeae4b073aa6119e8611302565b6040516119f591906138ca565b60405180910390a1565b611a0881612171565b50565b611a13610bec565b15611a53576040517f08c379a0000000000000000000000000000000000000000000000000000000008152600401611a4a90613ab2565b60405180910390fd5b6001600b60006101000a81548160ff0219169083151502179055507f62e78cea01bee320cd4e420270b5ea74000d11b0c9f74754ebdbfc544b05a258611a97611302565b604051611aa491906138ca565b60405180910390a1565b611ab98484846114a1565b611ac5848484846121c4565b611b04576040517f08c379a0000000000000000000000000000000000000000000000000000000008152600401611afb90613a12565b60405180910390fd5b50505050565b6060611b1582611296565b611b54576040517f08c379a0000000000000000000000000000000000000000000000000000000008152600401611b4b90613b72565b60405180910390fd5b6000600a60008481526020019081526020016000208054611b7490613f76565b80601f0160208091040260200160405190810160405280929190818152602001828054611ba090613f76565b8015611bed5780601f10611bc257610100808354040283529160200191611bed565b820191906000526020600020905b815481529060010190602001808311611bd057829003601f168201915b505050505090506000611bfe61235b565b9050600081511415611c14578192505050611c57565b600082511115611c49578082604051602001611c3192919061386c565b60405160208183030381529060405292505050611c57565b611c5284612398565b925050505b919050565b600081600001549050919050565b6001816000016000828254019250508190555050565b611c9a82826040518060200160405280600081525061243f565b5050565b611ca782611296565b611ce6576040517f08c379a0000000000000000000000000000000000000000000000000000000008152600401611cdd90613b32565b60405180910390fd5b80600a60008481526020019081526020016000209080519060200190611d0d929190612f16565b505050565b600d60009054906101000a900473ffffffffffffffffffffffffffffffffffffffff1673ffffffffffffffffffffffffffffffffffffffff166340c10f1983836040518363ffffffff1660e01b8152600401611d6f929190613931565b600060405180830381600087803b158015611d8957600080fd5b505af1158015611d9d573d6000803e3d6000fd5b505050505050565b60007f780e9d63000000000000000000000000000000000000000000000000000000007bffffffffffffffffffffffffffffffffffffffffffffffffffffffff1916827bffffffffffffffffffffffffffffffffffffffffffffffffffffffff19161480611e185750611e178261249a565b5b9050919050565b611e27610bec565b15611e67576040517f08c379a0000000000000000000000000000000000000000000000000000000008152600401611e5e90613ab2565b60405180910390fd5b611e7283838361257c565b505050565b606060006002836002611e8a9190613dfe565b611e949190613d77565b67ffffffffffffffff811115611ed3577f4e487b7100000000000000000000000000000000000000000000000000000000600052604160045260246000fd5b6040519080825280601f01601f191660200182016040528015611f055781602001600182028036833780820191505090505b5090507f300000000000000000000000000000000000000000000000000000000000000081600081518110611f63577f4e487b7100000000000000000000000000000000000000000000000000000000600052603260045260246000fd5b60200101907effffffffffffffffffffffffffffffffffffffffffffffffffffffffffffff1916908160001a9053507f780000000000000000000000000000000000000000000000000000000000000081600181518110611fed577f4e487b7100000000000000000000000000000000000000000000000000000000600052603260045260246000fd5b60200101907effffffffffffffffffffffffffffffffffffffffffffffffffffffffffffff1916908160001a9053506000600184600261202d9190613dfe565b6120379190613d77565b90505b6001811115612123577f3031323334353637383961626364656600000000000000000000000000000000600f86166010811061209f577f4e487b7100000000000000000000000000000000000000000000000000000000600052603260045260246000fd5b1a60f81b8282815181106120dc577f4e487b7100000000000000000000000000000000000000000000000000000000600052603260045260246000fd5b60200101907effffffffffffffffffffffffffffffffffffffffffffffffffffffffffffff1916908160001a905350600485901c94508061211c90613f4c565b905061203a565b5060008414612167576040517f08c379a000000000000000000000000000000000000000000000000000000000815260040161215e906139b2565b60405180910390fd5b8091505092915050565b61217a81612690565b6000600a6000838152602001908152602001600020805461219a90613f76565b9050146121c157600a600082815260200190815260200160002060006121c09190612f9c565b5b50565b60006121e58473ffffffffffffffffffffffffffffffffffffffff166127a1565b1561234e578373ffffffffffffffffffffffffffffffffffffffff1663150b7a0261220e611302565b8786866040518563ffffffff1660e01b815260040161223094939291906138e5565b602060405180830381600087803b15801561224a57600080fd5b505af192505050801561227b57506040513d601f19601f8201168201806040525081019061227891906133d0565b60015b6122fe573d80600081146122ab576040519150601f19603f3d011682016040523d82523d6000602084013e6122b0565b606091505b506000815114156122f6576040517f08c379a00000000000000000000000000000000000000000000000000000000081526004016122ed90613a12565b60405180910390fd5b805181602001fd5b63150b7a0260e01b7bffffffffffffffffffffffffffffffffffffffffffffffffffffffff1916817bffffffffffffffffffffffffffffffffffffffffffffffffffffffff191614915050612353565b600190505b949350505050565b60606040518060400160405280601981526020017f68747470733a2f2f70697a7a61746f6b656e2e70697a7a612f00000000000000815250905090565b60606123a382611296565b6123e2576040517f08c379a00000000000000000000000000000000000000000000000000000000081526004016123d990613bd2565b60405180910390fd5b60006123ec61235b565b9050600081511161240c5760405180602001604052806000815250612437565b80612416846127b4565b60405160200161242792919061386c565b6040516020818303038152906040525b915050919050565b6124498383612961565b61245660008484846121c4565b612495576040517f08c379a000000000000000000000000000000000000000000000000000000000815260040161248c90613a12565b60405180910390fd5b505050565b60007f80ac58cd000000000000000000000000000000000000000000000000000000007bffffffffffffffffffffffffffffffffffffffffffffffffffffffff1916827bffffffffffffffffffffffffffffffffffffffffffffffffffffffff1916148061256557507f5b5e139f000000000000000000000000000000000000000000000000000000007bffffffffffffffffffffffffffffffffffffffffffffffffffffffff1916827bffffffffffffffffffffffffffffffffffffffffffffffffffffffff1916145b80612575575061257482612b2f565b5b9050919050565b612587838383612b99565b600073ffffffffffffffffffffffffffffffffffffffff168373ffffffffffffffffffffffffffffffffffffffff1614156125ca576125c581612b9e565b612609565b8173ffffffffffffffffffffffffffffffffffffffff168373ffffffffffffffffffffffffffffffffffffffff1614612608576126078382612be7565b5b5b600073ffffffffffffffffffffffffffffffffffffffff168273ffffffffffffffffffffffffffffffffffffffff16141561264c5761264781612d54565b61268b565b8273ffffffffffffffffffffffffffffffffffffffff168273ffffffffffffffffffffffffffffffffffffffff161461268a576126898282612e97565b5b5b505050565b600061269b82610c03565b90506126a981600084611e1f565b6126b460008361130a565b6001600360008373ffffffffffffffffffffffffffffffffffffffff1673ffffffffffffffffffffffffffffffffffffffff16815260200190815260200160002060008282546127049190613e58565b925050819055506002600083815260200190815260200160002060006101000a81549073ffffffffffffffffffffffffffffffffffffffff021916905581600073ffffffffffffffffffffffffffffffffffffffff168273ffffffffffffffffffffffffffffffffffffffff167fddf252ad1be2c89b69c2b068fc378daa952ba7f163c4a11628f55a4df523b3ef60405160405180910390a45050565b600080823b905060008111915050919050565b606060008214156127fc576040518060400160405280600181526020017f3000000000000000000000000000000000000000000000000000000000000000815250905061295c565b600082905060005b6000821461282e57808061281790613fd9565b915050600a826128279190613dcd565b9150612804565b60008167ffffffffffffffff811115612870577f4e487b7100000000000000000000000000000000000000000000000000000000600052604160045260246000fd5b6040519080825280601f01601f1916602001820160405280156128a25781602001600182028036833780820191505090505b5090505b60008514612955576001826128bb9190613e58565b9150600a856128ca9190614022565b60306128d69190613d77565b60f81b818381518110612912577f4e487b7100000000000000000000000000000000000000000000000000000000600052603260045260246000fd5b60200101907effffffffffffffffffffffffffffffffffffffffffffffffffffffffffffff1916908160001a905350600a8561294e9190613dcd565b94506128a6565b8093505050505b919050565b600073ffffffffffffffffffffffffffffffffffffffff168273ffffffffffffffffffffffffffffffffffffffff1614156129d1576040517f08c379a00000000000000000000000000000000000000000000000000000000081526004016129c890613b52565b60405180910390fd5b6129da81611296565b15612a1a576040517f08c379a0000000000000000000000000000000000000000000000000000000008152600401612a1190613a32565b60405180910390fd5b612a2660008383611e1f565b6001600360008473ffffffffffffffffffffffffffffffffffffffff1673ffffffffffffffffffffffffffffffffffffffff1681526020019081526020016000206000828254612a769190613d77565b92505081905550816002600083815260200190815260200160002060006101000a81548173ffffffffffffffffffffffffffffffffffffffff021916908373ffffffffffffffffffffffffffffffffffffffff160217905550808273ffffffffffffffffffffffffffffffffffffffff16600073ffffffffffffffffffffffffffffffffffffffff167fddf252ad1be2c89b69c2b068fc378daa952ba7f163c4a11628f55a4df523b3ef60405160405180910390a45050565b60007f01ffc9a7000000000000000000000000000000000000000000000000000000007bffffffffffffffffffffffffffffffffffffffffffffffffffffffff1916827bffffffffffffffffffffffffffffffffffffffffffffffffffffffff1916149050919050565b505050565b6008805490506009600083815260200190815260200160002081905550600881908060018154018082558091505060019003906000526020600020016000909190919091505550565b60006001612bf484610cb5565b612bfe9190613e58565b9050600060076000848152602001908152602001600020549050818114612ce3576000600660008673ffffffffffffffffffffffffffffffffffffffff1673ffffffffffffffffffffffffffffffffffffffff168152602001908152602001600020600084815260200190815260200160002054905080600660008773ffffffffffffffffffffffffffffffffffffffff1673ffffffffffffffffffffffffffffffffffffffff168152602001908152602001600020600084815260200190815260200160002081905550816007600083815260200190815260200160002081905550505b6007600084815260200190815260200160002060009055600660008573ffffffffffffffffffffffffffffffffffffffff1673ffffffffffffffffffffffffffffffffffffffff16815260200190815260200160002060008381526020019081526020016000206000905550505050565b60006001600880549050612d689190613e58565b9050600060096000848152602001908152602001600020549050600060088381548110612dbe577f4e487b7100000000000000000000000000000000000000000000000000000000600052603260045260246000fd5b906000526020600020015490508060088381548110612e06577f4e487b7100000000000000000000000000000000000000000000000000000000600052603260045260246000fd5b906000526020600020018190555081600960008381526020019081526020016000208190555060096000858152602001908152602001600020600090556008805480612e7b577f4e487b7100000000000000000000000000000000000000000000000000000000600052603160045260246000fd5b6001900381819060005260206000200160009055905550505050565b6000612ea283610cb5565b905081600660008573ffffffffffffffffffffffffffffffffffffffff1673ffffffffffffffffffffffffffffffffffffffff168152602001908152602001600020600083815260200190815260200160002081905550806007600084815260200190815260200160002081905550505050565b828054612f2290613f76565b90600052602060002090601f016020900481019282612f445760008555612f8b565b82601f10612f5d57805160ff1916838001178555612f8b565b82800160010185558215612f8b579182015b82811115612f8a578251825591602001919060010190612f6f565b5b509050612f989190612fdc565b5090565b508054612fa890613f76565b6000825580601f10612fba5750612fd9565b601f016020900490600052602060002090810190612fd89190612fdc565b5b50565b5b80821115612ff5576000816000905550600101612fdd565b5090565b600061300c61300784613cd2565b613cad565b90508281526020810184848401111561302457600080fd5b61302f848285613f0a565b509392505050565b600061304a61304584613d03565b613cad565b90508281526020810184848401111561306257600080fd5b61306d848285613f0a565b509392505050565b600081359050613084816147a7565b92915050565b600081359050613099816147be565b92915050565b6000813590506130ae816147d5565b92915050565b6000813590506130c3816147ec565b92915050565b6000815190506130d8816147ec565b92915050565b600082601f8301126130ef57600080fd5b81356130ff848260208601612ff9565b91505092915050565b600082601f83011261311957600080fd5b8135613129848260208601613037565b91505092915050565b60008135905061314181614803565b92915050565b60006020828403121561315957600080fd5b600061316784828501613075565b91505092915050565b6000806040838503121561318357600080fd5b600061319185828601613075565b92505060206131a285828601613075565b9150509250929050565b6000806000606084860312156131c157600080fd5b60006131cf86828701613075565b93505060206131e086828701613075565b92505060406131f186828701613132565b9150509250925092565b6000806000806080858703121561321157600080fd5b600061321f87828801613075565b945050602061323087828801613075565b935050604061324187828801613132565b925050606085013567ffffffffffffffff81111561325e57600080fd5b61326a878288016130de565b91505092959194509250565b6000806040838503121561328957600080fd5b600061329785828601613075565b92505060206132a88582860161308a565b9150509250929050565b600080604083850312156132c557600080fd5b60006132d385828601613075565b925050602083013567ffffffffffffffff8111156132f057600080fd5b6132fc85828601613108565b9150509250929050565b6000806040838503121561331957600080fd5b600061332785828601613075565b925050602061333885828601613132565b9150509250929050565b60006020828403121561335457600080fd5b60006133628482850161309f565b91505092915050565b6000806040838503121561337e57600080fd5b600061338c8582860161309f565b925050602061339d85828601613075565b9150509250929050565b6000602082840312156133b957600080fd5b60006133c7848285016130b4565b91505092915050565b6000602082840312156133e257600080fd5b60006133f0848285016130c9565b91505092915050565b60006020828403121561340b57600080fd5b600061341984828501613132565b91505092915050565b61342b81613e8c565b82525050565b61343a81613e9e565b82525050565b61344981613eaa565b82525050565b600061345a82613d34565b6134648185613d4a565b9350613474818560208601613f19565b61347d8161410f565b840191505092915050565b600061349382613d3f565b61349d8185613d5b565b93506134ad818560208601613f19565b6134b68161410f565b840191505092915050565b60006134cc82613d3f565b6134d68185613d6c565b93506134e6818560208601613f19565b80840191505092915050565b60006134ff602083613d5b565b915061350a82614120565b602082019050919050565b6000613522601483613d5b565b915061352d82614149565b602082019050919050565b6000613545602b83613d5b565b915061355082614172565b604082019050919050565b6000613568603283613d5b565b9150613573826141c1565b604082019050919050565b600061358b601c83613d5b565b915061359682614210565b602082019050919050565b60006135ae602483613d5b565b91506135b982614239565b604082019050919050565b60006135d1601983613d5b565b91506135dc82614288565b602082019050919050565b60006135f4602c83613d5b565b91506135ff826142b1565b604082019050919050565b6000613617601083613d5b565b915061362282614300565b602082019050919050565b600061363a603883613d5b565b915061364582614329565b604082019050919050565b600061365d602a83613d5b565b915061366882614378565b604082019050919050565b6000613680602983613d5b565b915061368b826143c7565b604082019050919050565b60006136a3602e83613d5b565b91506136ae82614416565b604082019050919050565b60006136c6602083613d5b565b91506136d182614465565b602082019050919050565b60006136e9603183613d5b565b91506136f48261448e565b604082019050919050565b600061370c602c83613d5b565b9150613717826144dd565b604082019050919050565b600061372f602983613d5b565b915061373a8261452c565b604082019050919050565b6000613752602f83613d5b565b915061375d8261457b565b604082019050919050565b6000613775602183613d5b565b9150613780826145ca565b604082019050919050565b6000613798603183613d5b565b91506137a382614619565b604082019050919050565b60006137bb602c83613d5b565b91506137c682614668565b604082019050919050565b60006137de601783613d6c565b91506137e9826146b7565b601782019050919050565b6000613801603083613d5b565b915061380c826146e0565b604082019050919050565b6000613824601183613d6c565b915061382f8261472f565b601182019050919050565b6000613847602f83613d5b565b915061385282614758565b604082019050919050565b61386681613f00565b82525050565b600061387882856134c1565b915061388482846134c1565b91508190509392505050565b600061389b826137d1565b91506138a782856134c1565b91506138b282613817565b91506138be82846134c1565b91508190509392505050565b60006020820190506138df6000830184613422565b92915050565b60006080820190506138fa6000830187613422565b6139076020830186613422565b613914604083018561385d565b8181036060830152613926818461344f565b905095945050505050565b60006040820190506139466000830185613422565b613953602083018461385d565b9392505050565b600060208201905061396f6000830184613431565b92915050565b600060208201905061398a6000830184613440565b92915050565b600060208201905081810360008301526139aa8184613488565b905092915050565b600060208201905081810360008301526139cb816134f2565b9050919050565b600060208201905081810360008301526139eb81613515565b9050919050565b60006020820190508181036000830152613a0b81613538565b9050919050565b60006020820190508181036000830152613a2b8161355b565b9050919050565b60006020820190508181036000830152613a4b8161357e565b9050919050565b60006020820190508181036000830152613a6b816135a1565b9050919050565b60006020820190508181036000830152613a8b816135c4565b9050919050565b60006020820190508181036000830152613aab816135e7565b9050919050565b60006020820190508181036000830152613acb8161360a565b9050919050565b60006020820190508181036000830152613aeb8161362d565b9050919050565b60006020820190508181036000830152613b0b81613650565b9050919050565b60006020820190508181036000830152613b2b81613673565b9050919050565b60006020820190508181036000830152613b4b81613696565b9050919050565b60006020820190508181036000830152613b6b816136b9565b9050919050565b60006020820190508181036000830152613b8b816136dc565b9050919050565b60006020820190508181036000830152613bab816136ff565b9050919050565b60006020820190508181036000830152613bcb81613722565b9050919050565b60006020820190508181036000830152613beb81613745565b9050919050565b60006020820190508181036000830152613c0b81613768565b9050919050565b60006020820190508181036000830152613c2b8161378b565b9050919050565b60006020820190508181036000830152613c4b816137ae565b9050919050565b60006020820190508181036000830152613c6b816137f4565b9050919050565b60006020820190508181036000830152613c8b8161383a565b9050919050565b6000602082019050613ca7600083018461385d565b92915050565b6000613cb7613cc8565b9050613cc38282613fa8565b919050565b6000604051905090565b600067ffffffffffffffff821115613ced57613cec6140e0565b5b613cf68261410f565b9050602081019050919050565b600067ffffffffffffffff821115613d1e57613d1d6140e0565b5b613d278261410f565b9050602081019050919050565b600081519050919050565b600081519050919050565b600082825260208201905092915050565b600082825260208201905092915050565b600081905092915050565b6000613d8282613f00565b9150613d8d83613f00565b9250827fffffffffffffffffffffffffffffffffffffffffffffffffffffffffffffffff03821115613dc257613dc1614053565b5b828201905092915050565b6000613dd882613f00565b9150613de383613f00565b925082613df357613df2614082565b5b828204905092915050565b6000613e0982613f00565b9150613e1483613f00565b9250817fffffffffffffffffffffffffffffffffffffffffffffffffffffffffffffffff0483118215151615613e4d57613e4c614053565b5b828202905092915050565b6000613e6382613f00565b9150613e6e83613f00565b925082821015613e8157613e80614053565b5b828203905092915050565b6000613e9782613ee0565b9050919050565b60008115159050919050565b6000819050919050565b60007fffffffff0000000000000000000000000000000000000000000000000000000082169050919050565b600073ffffffffffffffffffffffffffffffffffffffff82169050919050565b6000819050919050565b82818337600083830152505050565b60005b83811015613f37578082015181840152602081019050613f1c565b83811115613f46576000848401525b50505050565b6000613f5782613f00565b91506000821415613f6b57613f6a614053565b5b600182039050919050565b60006002820490506001821680613f8e57607f821691505b60208210811415613fa257613fa16140b1565b5b50919050565b613fb18261410f565b810181811067ffffffffffffffff82111715613fd057613fcf6140e0565b5b80604052505050565b6000613fe482613f00565b91507fffffffffffffffffffffffffffffffffffffffffffffffffffffffffffffffff82141561401757614016614053565b5b600182019050919050565b600061402d82613f00565b915061403883613f00565b92508261404857614047614082565b5b828206905092915050565b7f4e487b7100000000000000000000000000000000000000000000000000000000600052601160045260246000fd5b7f4e487b7100000000000000000000000000000000000000000000000000000000600052601260045260246000fd5b7f4e487b7100000000000000000000000000000000000000000000000000000000600052602260045260246000fd5b7f4e487b7100000000000000000000000000000000000000000000000000000000600052604160045260246000fd5b6000601f19601f8301169050919050565b7f537472696e67733a20686578206c656e67746820696e73756666696369656e74600082015250565b7f5061757361626c653a206e6f7420706175736564000000000000000000000000600082015250565b7f455243373231456e756d657261626c653a206f776e657220696e646578206f7560008201527f74206f6620626f756e6473000000000000000000000000000000000000000000602082015250565b7f4552433732313a207472616e7366657220746f206e6f6e20455243373231526560008201527f63656976657220696d706c656d656e7465720000000000000000000000000000602082015250565b7f4552433732313a20746f6b656e20616c7265616479206d696e74656400000000600082015250565b7f4552433732313a207472616e7366657220746f20746865207a65726f2061646460008201527f7265737300000000000000000000000000000000000000000000000000000000602082015250565b7f4552433732313a20617070726f766520746f2063616c6c657200000000000000600082015250565b7f4552433732313a206f70657261746f7220717565727920666f72206e6f6e657860008201527f697374656e7420746f6b656e0000000000000000000000000000000000000000602082015250565b7f5061757361626c653a2070617573656400000000000000000000000000000000600082015250565b7f4552433732313a20617070726f76652063616c6c6572206973206e6f74206f7760008201527f6e6572206e6f7220617070726f76656420666f7220616c6c0000000000000000602082015250565b7f4552433732313a2062616c616e636520717565727920666f7220746865207a6560008201527f726f206164647265737300000000000000000000000000000000000000000000602082015250565b7f4552433732313a206f776e657220717565727920666f72206e6f6e657869737460008201527f656e7420746f6b656e0000000000000000000000000000000000000000000000602082015250565b7f45524337323155524953746f726167653a2055524920736574206f66206e6f6e60008201527f6578697374656e7420746f6b656e000000000000000000000000000000000000602082015250565b7f4552433732313a206d696e7420746f20746865207a65726f2061646472657373600082015250565b7f45524337323155524953746f726167653a2055524920717565727920666f722060008201527f6e6f6e6578697374656e7420746f6b656e000000000000000000000000000000602082015250565b7f4552433732313a20617070726f76656420717565727920666f72206e6f6e657860008201527f697374656e7420746f6b656e0000000000000000000000000000000000000000602082015250565b7f4552433732313a207472616e73666572206f6620746f6b656e2074686174206960008201527f73206e6f74206f776e0000000000000000000000000000000000000000000000602082015250565b7f4552433732314d657461646174613a2055524920717565727920666f72206e6f60008201527f6e6578697374656e7420746f6b656e0000000000000000000000000000000000602082015250565b7f4552433732313a20617070726f76616c20746f2063757272656e74206f776e6560008201527f7200000000000000000000000000000000000000000000000000000000000000602082015250565b7f4552433732313a207472616e736665722063616c6c6572206973206e6f74206f60008201527f776e6572206e6f7220617070726f766564000000000000000000000000000000602082015250565b7f455243373231456e756d657261626c653a20676c6f62616c20696e646578206f60008201527f7574206f6620626f756e64730000000000000000000000000000000000000000602082015250565b7f416363657373436f6e74726f6c3a206163636f756e7420000000000000000000600082015250565b7f4552433732314275726e61626c653a2063616c6c6572206973206e6f74206f7760008201527f6e6572206e6f7220617070726f76656400000000000000000000000000000000602082015250565b7f206973206d697373696e6720726f6c6520000000000000000000000000000000600082015250565b7f416363657373436f6e74726f6c3a2063616e206f6e6c792072656e6f756e636560008201527f20726f6c657320666f722073656c660000000000000000000000000000000000602082015250565b6147b081613e8c565b81146147bb57600080fd5b50565b6147c781613e9e565b81146147d257600080fd5b50565b6147de81613eaa565b81146147e957600080fd5b50565b6147f581613eb4565b811461480057600080fd5b50565b61480c81613f00565b811461481757600080fd5b5056fea26469706673582212200d3c37294175b4a8fdb7b48a12efd72ef96561ab10530fc99b506fa8f603163664736f6c6343000803003360806040523480156200001157600080fd5b506040518060400160405280600981526020017f50697a7a61436f696e00000000000000000000000000000000000000000000008152506040518060400160405280600381526020017f505a4300000000000000000000000000000000000000000000000000000000008152508160039080519060200190620000969291906200027a565b508060049080519060200190620000af9291906200027a565b505050620000c76000801b33620000ff60201b60201c565b620000f97f9f2df0fed2c77648de5860a4cc508cd0818c85b8b8a1ab4ceeef8d981c8956a633620000ff60201b60201c565b6200038f565b6200011182826200011560201b60201c565b5050565b6200012782826200020760201b60201c565b620002035760016005600084815260200190815260200160002060000160008373ffffffffffffffffffffffffffffffffffffffff1673ffffffffffffffffffffffffffffffffffffffff16815260200190815260200160002060006101000a81548160ff021916908315150217905550620001a86200027260201b60201c565b73ffffffffffffffffffffffffffffffffffffffff168173ffffffffffffffffffffffffffffffffffffffff16837f2f8788117e7eff1d82e926ec794901d17c78024a50270940304540a733656f0d60405160405180910390a45b5050565b60006005600084815260200190815260200160002060000160008373ffffffffffffffffffffffffffffffffffffffff1673ffffffffffffffffffffffffffffffffffffffff16815260200190815260200160002060009054906101000a900460ff16905092915050565b600033905090565b82805462000288906200032a565b90600052602060002090601f016020900481019282620002ac5760008555620002f8565b82601f10620002c757805160ff1916838001178555620002f8565b82800160010185558215620002f8579182015b82811115620002f7578251825591602001919060010190620002da565b5b5090506200030791906200030b565b5090565b5b80821115620003265760008160009055506001016200030c565b5090565b600060028204905060018216806200034357607f821691505b602082108114156200035a576200035962000360565b5b50919050565b7f4e487b7100000000000000000000000000000000000000000000000000000000600052602260045260246000fd5b6127c7806200039f6000396000f3fe608060405234801561001057600080fd5b50600436106101425760003560e01c806342966c68116100b8578063a217fddf1161007c578063a217fddf1461039b578063a457c2d7146103b9578063a9059cbb146103e9578063d539139314610419578063d547741f14610437578063dd62ed3e1461045357610142565b806342966c68146102e557806370a082311461030157806379cc67901461033157806391d148541461034d57806395d89b411461037d57610142565b8063248a9ca31161010a578063248a9ca3146102135780632f2ff15d14610243578063313ce5671461025f57806336568abe1461027d578063395093511461029957806340c10f19146102c957610142565b806301ffc9a71461014757806306fdde0314610177578063095ea7b31461019557806318160ddd146101c557806323b872dd146101e3575b600080fd5b610161600480360381019061015c9190611b2b565b610483565b60405161016e9190611e6a565b60405180910390f35b61017f6104fd565b60405161018c9190611ea0565b60405180910390f35b6101af60048036038101906101aa9190611a8a565b61058f565b6040516101bc9190611e6a565b60405180910390f35b6101cd6105ad565b6040516101da9190612062565b60405180910390f35b6101fd60048036038101906101f89190611a3b565b6105b7565b60405161020a9190611e6a565b60405180910390f35b61022d60048036038101906102289190611ac6565b6106af565b60405161023a9190611e85565b60405180910390f35b61025d60048036038101906102589190611aef565b6106cf565b005b6102676106f8565b604051610274919061207d565b60405180910390f35b61029760048036038101906102929190611aef565b610701565b005b6102b360048036038101906102ae9190611a8a565b610784565b6040516102c09190611e6a565b60405180910390f35b6102e360048036038101906102de9190611a8a565b610830565b005b6102ff60048036038101906102fa9190611b54565b610871565b005b61031b600480360381019061031691906119d6565b610885565b6040516103289190612062565b60405180910390f35b61034b60048036038101906103469190611a8a565b6108cd565b005b61036760048036038101906103629190611aef565b610948565b6040516103749190611e6a565b60405180910390f35b6103856109b3565b6040516103929190611ea0565b60405180910390f35b6103a3610a45565b6040516103b09190611e85565b60405180910390f35b6103d360048036038101906103ce9190611a8a565b610a4c565b6040516103e09190611e6a565b60405180910390f35b61040360048036038101906103fe9190611a8a565b610b37565b6040516104109190611e6a565b60405180910390f35b610421610b55565b60405161042e9190611e85565b60405180910390f35b610451600480360381019061044c9190611aef565b610b79565b005b61046d600480360381019061046891906119ff565b610ba2565b60405161047a9190612062565b60405180910390f35b60007f7965db0b000000000000000000000000000000000000000000000000000000007bffffffffffffffffffffffffffffffffffffffffffffffffffffffff1916827bffffffffffffffffffffffffffffffffffffffffffffffffffffffff191614806104f657506104f582610c29565b5b9050919050565b60606003805461050c9061228b565b80601f01602080910402602001604051908101604052809291908181526020018280546105389061228b565b80156105855780601f1061055a57610100808354040283529160200191610585565b820191906000526020600020905b81548152906001019060200180831161056857829003601f168201915b5050505050905090565b60006105a361059c610c93565b8484610c9b565b6001905092915050565b6000600254905090565b60006105c4848484610e66565b6000600160008673ffffffffffffffffffffffffffffffffffffffff1673ffffffffffffffffffffffffffffffffffffffff168152602001908152602001600020600061060f610c93565b73ffffffffffffffffffffffffffffffffffffffff1673ffffffffffffffffffffffffffffffffffffffff1681526020019081526020016000205490508281101561068f576040517f08c379a000000000000000000000000000000000000000000000000000000000815260040161068690611f62565b60405180910390fd5b6106a38561069b610c93565b858403610c9b565b60019150509392505050565b600060056000838152602001908152602001600020600101549050919050565b6106d8826106af565b6106e9816106e4610c93565b6110e7565b6106f38383611184565b505050565b60006012905090565b610709610c93565b73ffffffffffffffffffffffffffffffffffffffff168173ffffffffffffffffffffffffffffffffffffffff1614610776576040517f08c379a000000000000000000000000000000000000000000000000000000000815260040161076d90612022565b60405180910390fd5b6107808282611265565b5050565b6000610826610791610c93565b84846001600061079f610c93565b73ffffffffffffffffffffffffffffffffffffffff1673ffffffffffffffffffffffffffffffffffffffff16815260200190815260200160002060008873ffffffffffffffffffffffffffffffffffffffff1673ffffffffffffffffffffffffffffffffffffffff1681526020019081526020016000205461082191906120bf565b610c9b565b6001905092915050565b7f9f2df0fed2c77648de5860a4cc508cd0818c85b8b8a1ab4ceeef8d981c8956a66108628161085d610c93565b6110e7565b61086c8383611347565b505050565b61088261087c610c93565b826114a7565b50565b60008060008373ffffffffffffffffffffffffffffffffffffffff1673ffffffffffffffffffffffffffffffffffffffff168152602001908152602001600020549050919050565b60006108e0836108db610c93565b610ba2565b905081811015610925576040517f08c379a000000000000000000000000000000000000000000000000000000000815260040161091c90611f82565b60405180910390fd5b61093983610931610c93565b848403610c9b565b61094383836114a7565b505050565b60006005600084815260200190815260200160002060000160008373ffffffffffffffffffffffffffffffffffffffff1673ffffffffffffffffffffffffffffffffffffffff16815260200190815260200160002060009054906101000a900460ff16905092915050565b6060600480546109c29061228b565b80601f01602080910402602001604051908101604052809291908181526020018280546109ee9061228b565b8015610a3b5780601f10610a1057610100808354040283529160200191610a3b565b820191906000526020600020905b815481529060010190602001808311610a1e57829003601f168201915b5050505050905090565b6000801b81565b60008060016000610a5b610c93565b73ffffffffffffffffffffffffffffffffffffffff1673ffffffffffffffffffffffffffffffffffffffff16815260200190815260200160002060008573ffffffffffffffffffffffffffffffffffffffff1673ffffffffffffffffffffffffffffffffffffffff16815260200190815260200160002054905082811015610b18576040517f08c379a0000000000000000000000000000000000000000000000000000000008152600401610b0f90612002565b60405180910390fd5b610b2c610b23610c93565b85858403610c9b565b600191505092915050565b6000610b4b610b44610c93565b8484610e66565b6001905092915050565b7f9f2df0fed2c77648de5860a4cc508cd0818c85b8b8a1ab4ceeef8d981c8956a681565b610b82826106af565b610b9381610b8e610c93565b6110e7565b610b9d8383611265565b505050565b6000600160008473ffffffffffffffffffffffffffffffffffffffff1673ffffffffffffffffffffffffffffffffffffffff16815260200190815260200160002060008373ffffffffffffffffffffffffffffffffffffffff1673ffffffffffffffffffffffffffffffffffffffff16815260200190815260200160002054905092915050565b60007f01ffc9a7000000000000000000000000000000000000000000000000000000007bffffffffffffffffffffffffffffffffffffffffffffffffffffffff1916827bffffffffffffffffffffffffffffffffffffffffffffffffffffffff1916149050919050565b600033905090565b600073ffffffffffffffffffffffffffffffffffffffff168373ffffffffffffffffffffffffffffffffffffffff161415610d0b576040517f08c379a0000000000000000000000000000000000000000000000000000000008152600401610d0290611fe2565b60405180910390fd5b600073ffffffffffffffffffffffffffffffffffffffff168273ffffffffffffffffffffffffffffffffffffffff161415610d7b576040517f08c379a0000000000000000000000000000000000000000000000000000000008152600401610d7290611f22565b60405180910390fd5b80600160008573ffffffffffffffffffffffffffffffffffffffff1673ffffffffffffffffffffffffffffffffffffffff16815260200190815260200160002060008473ffffffffffffffffffffffffffffffffffffffff1673ffffffffffffffffffffffffffffffffffffffff168152602001908152602001600020819055508173ffffffffffffffffffffffffffffffffffffffff168373ffffffffffffffffffffffffffffffffffffffff167f8c5be1e5ebec7d5bd14f71427d1e84f3dd0314c0f7b2291e5b200ac8c7c3b92583604051610e599190612062565b60405180910390a3505050565b600073ffffffffffffffffffffffffffffffffffffffff168373ffffffffffffffffffffffffffffffffffffffff161415610ed6576040517f08c379a0000000000000000000000000000000000000000000000000000000008152600401610ecd90611fc2565b60405180910390fd5b600073ffffffffffffffffffffffffffffffffffffffff168273ffffffffffffffffffffffffffffffffffffffff161415610f46576040517f08c379a0000000000000000000000000000000000000000000000000000000008152600401610f3d90611ee2565b60405180910390fd5b610f5183838361167e565b60008060008573ffffffffffffffffffffffffffffffffffffffff1673ffffffffffffffffffffffffffffffffffffffff16815260200190815260200160002054905081811015610fd7576040517f08c379a0000000000000000000000000000000000000000000000000000000008152600401610fce90611f42565b60405180910390fd5b8181036000808673ffffffffffffffffffffffffffffffffffffffff1673ffffffffffffffffffffffffffffffffffffffff16815260200190815260200160002081905550816000808573ffffffffffffffffffffffffffffffffffffffff1673ffffffffffffffffffffffffffffffffffffffff168152602001908152602001600020600082825461106a91906120bf565b925050819055508273ffffffffffffffffffffffffffffffffffffffff168473ffffffffffffffffffffffffffffffffffffffff167fddf252ad1be2c89b69c2b068fc378daa952ba7f163c4a11628f55a4df523b3ef846040516110ce9190612062565b60405180910390a36110e1848484611683565b50505050565b6110f18282610948565b611180576111168173ffffffffffffffffffffffffffffffffffffffff166014611688565b6111248360001c6020611688565b604051602001611135929190611e30565b6040516020818303038152906040526040517f08c379a00000000000000000000000000000000000000000000000000000000081526004016111779190611ea0565b60405180910390fd5b5050565b61118e8282610948565b6112615760016005600084815260200190815260200160002060000160008373ffffffffffffffffffffffffffffffffffffffff1673ffffffffffffffffffffffffffffffffffffffff16815260200190815260200160002060006101000a81548160ff021916908315150217905550611206610c93565b73ffffffffffffffffffffffffffffffffffffffff168173ffffffffffffffffffffffffffffffffffffffff16837f2f8788117e7eff1d82e926ec794901d17c78024a50270940304540a733656f0d60405160405180910390a45b5050565b61126f8282610948565b156113435760006005600084815260200190815260200160002060000160008373ffffffffffffffffffffffffffffffffffffffff1673ffffffffffffffffffffffffffffffffffffffff16815260200190815260200160002060006101000a81548160ff0219169083151502179055506112e8610c93565b73ffffffffffffffffffffffffffffffffffffffff168173ffffffffffffffffffffffffffffffffffffffff16837ff6391f5c32d9c69d2a47ea670b442974b53935d1edc7fd64eb21e047a839171b60405160405180910390a45b5050565b600073ffffffffffffffffffffffffffffffffffffffff168273ffffffffffffffffffffffffffffffffffffffff1614156113b7576040517f08c379a00000000000000000000000000000000000000000000000000000000081526004016113ae90612042565b60405180910390fd5b6113c36000838361167e565b80600260008282546113d591906120bf565b92505081905550806000808473ffffffffffffffffffffffffffffffffffffffff1673ffffffffffffffffffffffffffffffffffffffff168152602001908152602001600020600082825461142a91906120bf565b925050819055508173ffffffffffffffffffffffffffffffffffffffff16600073ffffffffffffffffffffffffffffffffffffffff167fddf252ad1be2c89b69c2b068fc378daa952ba7f163c4a11628f55a4df523b3ef8360405161148f9190612062565b60405180910390a36114a360008383611683565b5050565b600073ffffffffffffffffffffffffffffffffffffffff168273ffffffffffffffffffffffffffffffffffffffff161415611517576040517f08c379a000000000000000000000000000000000000000000000000000000000815260040161150e90611fa2565b60405180910390fd5b6115238260008361167e565b60008060008473ffffffffffffffffffffffffffffffffffffffff1673ffffffffffffffffffffffffffffffffffffffff168152602001908152602001600020549050818110156115a9576040517f08c379a00000000000000000000000000000000000000000000000000000000081526004016115a090611f02565b60405180910390fd5b8181036000808573ffffffffffffffffffffffffffffffffffffffff1673ffffffffffffffffffffffffffffffffffffffff168152602001908152602001600020819055508160026000828254611600919061216f565b92505081905550600073ffffffffffffffffffffffffffffffffffffffff168373ffffffffffffffffffffffffffffffffffffffff167fddf252ad1be2c89b69c2b068fc378daa952ba7f163c4a11628f55a4df523b3ef846040516116659190612062565b60405180910390a361167983600084611683565b505050565b505050565b505050565b60606000600283600261169b9190612115565b6116a591906120bf565b67ffffffffffffffff8111156116e4577f4e487b7100000000000000000000000000000000000000000000000000000000600052604160045260246000fd5b6040519080825280601f01601f1916602001820160405280156117165781602001600182028036833780820191505090505b5090507f300000000000000000000000000000000000000000000000000000000000000081600081518110611774577f4e487b7100000000000000000000000000000000000000000000000000000000600052603260045260246000fd5b60200101907effffffffffffffffffffffffffffffffffffffffffffffffffffffffffffff1916908160001a9053507f7800000000000000000000000000000000000000000000000000000000000000816001815181106117fe577f4e487b7100000000000000000000000000000000000000000000000000000000600052603260045260246000fd5b60200101907effffffffffffffffffffffffffffffffffffffffffffffffffffffffffffff1916908160001a9053506000600184600261183e9190612115565b61184891906120bf565b90505b6001811115611934577f3031323334353637383961626364656600000000000000000000000000000000600f8616601081106118b0577f4e487b7100000000000000000000000000000000000000000000000000000000600052603260045260246000fd5b1a60f81b8282815181106118ed577f4e487b7100000000000000000000000000000000000000000000000000000000600052603260045260246000fd5b60200101907effffffffffffffffffffffffffffffffffffffffffffffffffffffffffffff1916908160001a905350600485901c94508061192d90612261565b905061184b565b5060008414611978576040517f08c379a000000000000000000000000000000000000000000000000000000000815260040161196f90611ec2565b60405180910390fd5b8091505092915050565b60008135905061199181612735565b92915050565b6000813590506119a68161274c565b92915050565b6000813590506119bb81612763565b92915050565b6000813590506119d08161277a565b92915050565b6000602082840312156119e857600080fd5b60006119f684828501611982565b91505092915050565b60008060408385031215611a1257600080fd5b6000611a2085828601611982565b9250506020611a3185828601611982565b9150509250929050565b600080600060608486031215611a5057600080fd5b6000611a5e86828701611982565b9350506020611a6f86828701611982565b9250506040611a80868287016119c1565b9150509250925092565b60008060408385031215611a9d57600080fd5b6000611aab85828601611982565b9250506020611abc858286016119c1565b9150509250929050565b600060208284031215611ad857600080fd5b6000611ae684828501611997565b91505092915050565b60008060408385031215611b0257600080fd5b6000611b1085828601611997565b9250506020611b2185828601611982565b9150509250929050565b600060208284031215611b3d57600080fd5b6000611b4b848285016119ac565b91505092915050565b600060208284031215611b6657600080fd5b6000611b74848285016119c1565b91505092915050565b611b86816121b5565b82525050565b611b95816121c1565b82525050565b6000611ba682612098565b611bb081856120a3565b9350611bc081856020860161222e565b611bc98161231b565b840191505092915050565b6000611bdf82612098565b611be981856120b4565b9350611bf981856020860161222e565b80840191505092915050565b6000611c126020836120a3565b9150611c1d8261232c565b602082019050919050565b6000611c356023836120a3565b9150611c4082612355565b604082019050919050565b6000611c586022836120a3565b9150611c63826123a4565b604082019050919050565b6000611c7b6022836120a3565b9150611c86826123f3565b604082019050919050565b6000611c9e6026836120a3565b9150611ca982612442565b604082019050919050565b6000611cc16028836120a3565b9150611ccc82612491565b604082019050919050565b6000611ce46024836120a3565b9150611cef826124e0565b604082019050919050565b6000611d076021836120a3565b9150611d128261252f565b604082019050919050565b6000611d2a6025836120a3565b9150611d358261257e565b604082019050919050565b6000611d4d6024836120a3565b9150611d58826125cd565b604082019050919050565b6000611d706017836120b4565b9150611d7b8261261c565b601782019050919050565b6000611d936025836120a3565b9150611d9e82612645565b604082019050919050565b6000611db66011836120b4565b9150611dc182612694565b601182019050919050565b6000611dd9602f836120a3565b9150611de4826126bd565b604082019050919050565b6000611dfc601f836120a3565b9150611e078261270c565b602082019050919050565b611e1b81612217565b82525050565b611e2a81612221565b82525050565b6000611e3b82611d63565b9150611e478285611bd4565b9150611e5282611da9565b9150611e5e8284611bd4565b91508190509392505050565b6000602082019050611e7f6000830184611b7d565b92915050565b6000602082019050611e9a6000830184611b8c565b92915050565b60006020820190508181036000830152611eba8184611b9b565b905092915050565b60006020820190508181036000830152611edb81611c05565b9050919050565b60006020820190508181036000830152611efb81611c28565b9050919050565b60006020820190508181036000830152611f1b81611c4b565b9050919050565b60006020820190508181036000830152611f3b81611c6e565b9050919050565b60006020820190508181036000830152611f5b81611c91565b9050919050565b60006020820190508181036000830152611f7b81611cb4565b9050919050565b60006020820190508181036000830152611f9b81611cd7565b9050919050565b60006020820190508181036000830152611fbb81611cfa565b9050919050565b60006020820190508181036000830152611fdb81611d1d565b9050919050565b60006020820190508181036000830152611ffb81611d40565b9050919050565b6000602082019050818103600083015261201b81611d86565b9050919050565b6000602082019050818103600083015261203b81611dcc565b9050919050565b6000602082019050818103600083015261205b81611def565b9050919050565b60006020820190506120776000830184611e12565b92915050565b60006020820190506120926000830184611e21565b92915050565b600081519050919050565b600082825260208201905092915050565b600081905092915050565b60006120ca82612217565b91506120d583612217565b9250827fffffffffffffffffffffffffffffffffffffffffffffffffffffffffffffffff0382111561210a576121096122bd565b5b828201905092915050565b600061212082612217565b915061212b83612217565b9250817fffffffffffffffffffffffffffffffffffffffffffffffffffffffffffffffff0483118215151615612164576121636122bd565b5b828202905092915050565b600061217a82612217565b915061218583612217565b925082821015612198576121976122bd565b5b828203905092915050565b60006121ae826121f7565b9050919050565b60008115159050919050565b6000819050919050565b60007fffffffff0000000000000000000000000000000000000000000000000000000082169050919050565b600073ffffffffffffffffffffffffffffffffffffffff82169050919050565b6000819050919050565b600060ff82169050919050565b60005b8381101561224c578082015181840152602081019050612231565b8381111561225b576000848401525b50505050565b600061226c82612217565b915060008214156122805761227f6122bd565b5b600182039050919050565b600060028204905060018216806122a357607f821691505b602082108114156122b7576122b66122ec565b5b50919050565b7f4e487b7100000000000000000000000000000000000000000000000000000000600052601160045260246000fd5b7f4e487b7100000000000000000000000000000000000000000000000000000000600052602260045260246000fd5b6000601f19601f8301169050919050565b7f537472696e67733a20686578206c656e67746820696e73756666696369656e74600082015250565b7f45524332303a207472616e7366657220746f20746865207a65726f206164647260008201527f6573730000000000000000000000000000000000000000000000000000000000602082015250565b7f45524332303a206275726e20616d6f756e7420657863656564732062616c616e60008201527f6365000000000000000000000000000000000000000000000000000000000000602082015250565b7f45524332303a20617070726f766520746f20746865207a65726f20616464726560008201527f7373000000000000000000000000000000000000000000000000000000000000602082015250565b7f45524332303a207472616e7366657220616d6f756e742065786365656473206260008201527f616c616e63650000000000000000000000000000000000000000000000000000602082015250565b7f45524332303a207472616e7366657220616d6f756e742065786365656473206160008201527f6c6c6f77616e6365000000000000000000000000000000000000000000000000602082015250565b7f45524332303a206275726e20616d6f756e74206578636565647320616c6c6f7760008201527f616e636500000000000000000000000000000000000000000000000000000000602082015250565b7f45524332303a206275726e2066726f6d20746865207a65726f2061646472657360008201527f7300000000000000000000000000000000000000000000000000000000000000602082015250565b7f45524332303a207472616e736665722066726f6d20746865207a65726f20616460008201527f6472657373000000000000000000000000000000000000000000000000000000602082015250565b7f45524332303a20617070726f76652066726f6d20746865207a65726f2061646460008201527f7265737300000000000000000000000000000000000000000000000000000000602082015250565b7f416363657373436f6e74726f6c3a206163636f756e7420000000000000000000600082015250565b7f45524332303a2064656372656173656420616c6c6f77616e63652062656c6f7760008201527f207a65726f000000000000000000000000000000000000000000000000000000602082015250565b7f206973206d697373696e6720726f6c6520000000000000000000000000000000600082015250565b7f416363657373436f6e74726f6c3a2063616e206f6e6c792072656e6f756e636560008201527f20726f6c657320666f722073656c660000000000000000000000000000000000602082015250565b7f45524332303a206d696e7420746f20746865207a65726f206164647265737300600082015250565b61273e816121a3565b811461274957600080fd5b50565b612755816121c1565b811461276057600080fd5b50565b61276c816121cb565b811461277757600080fd5b50565b61278381612217565b811461278e57600080fd5b5056fea2646970667358221220ef265046a46c1a38cbc357d3b4fda698716777dbcdac504a963d6b35f65e5be164736f6c63430008030033",
  "linkReferences": {},
  "deployedLinkReferences": {}
}